:020000040000fa
:080000000034040000000000c0
:020000040000fa
:100008005ed500006cd500007ad500007ed50000d2
:1000180082d500005ed500005ed500005ed50000e8
:100028005ed500005ed500005ed50000760d0100ab
:100038005ed500005ed500005ed500005ed50000ec
:100048005ed500005ed500005ed500002c0b0100d7
:10005800780b01001ad000005ed500005ed50000c4
:100068005ed500005ed500005ed5000098cd00008a
:100078005ed500005ed500005ed500005ed50000ac
:100088005ed500005ed500005ed5000002d00000fd
:100098005ed500005ed50000a40b0100f00b010046
:1000a8005ed500005ed500005ed500005ed500007c
:1000b8005ed500005ed500005ed500005ed500006c
:1000c8005ed500005ed500005ed500005ed500005c
:1000d8005ed500005ed500005ed500005ed500004c
:1000e8005ed500005ed500005ed500005ed500003c
:1000f8005ed500005ed500005ed500005ed500002c
:100108005ed500005ed500005ed500005ed500001b
:100118005ed500005ed500005ed500005ed500000b
:100128005ed500005ed500005ed500005ed50000fb
:100138005ed500005ed500005ed500005ed50000eb
:100148005ed500005ed500005ed500005ed50000db
:100158005ed500005ed500005ed5000066d20000c6
:100168005ed500005ed500005ed500005ed50000bb
:100178005ed500005ed500005ed500005ed50000ab
:100188005ed500005ed500005ed500005ed500009b
:100198005ed500005ed500005ed500005ed500008b
:1001a8005ed500005ed500005ed500005ed500007b
:1001b8005ed500005ed500005ed500005ed500006b
:1001c8005ed500005ed500005ed500005ed500005b
:1001d8005ed500005ed500005ed500005ed500004b
:1001e8005ed500005ed500005ed500005ed500003b
:0801f8005ed500005ed5000099
:020000040000fa
:100208005ed500006cd500007ad500007ed50000d0
:1002180082d500005ed500005ed500005ed50000e6
:100228005ed500005ed500005ed50000760d0100a9
:100238005ed500005ed500005ed500005ed50000ea
:100248005ed500005ed500005ed500002c0b0100d5
:10025800780b01001ad000005ed500005ed50000c2
:100268005ed500005ed500005ed5000098cd000088
:100278005ed500005ed500005ed500005ed50000aa
:100288005ed500005ed500005ed5000002d00000fb
:100298005ed500005ed50000a40b0100f00b010044
:1002a8005ed500005ed500005ed500005ed500007a
:1002b8005ed500005ed500005ed500005ed500006a
:1002c8005ed500005ed500005ed500005ed500005a
:1002d8005ed500005ed500005ed500005ed500004a
:1002e8005ed500005ed500005ed500005ed500003a
:1002f8005ed500005ed500005ed500005ed500002a
:100308005ed500005ed500005ed500005ed5000019
:100318005ed500005ed500005ed500005ed5000009
:100328005ed500005ed500005ed500005ed50000f9
:100338005ed500005ed500005ed500005ed50000e9
:100348005ed500005ed500005ed500005ed50000d9
:100358005ed500005ed500005ed5000066d20000c4
:100368005ed500005ed500005ed500005ed50000b9
:100378005ed500005ed500005ed500005ed50000a9
:100388005ed500005ed500005ed500005ed5000099
:100398005ed500005ed500005ed500005ed5000089
:1003a8005ed500005ed500005ed500005ed5000079
:1003b8005ed500005ed500005ed500005ed5000069
:1003c8005ed500005ed500005ed500005ed5000059
:1003d8005ed500005ed500005ed500005ed5000049
:1003e8005ed500005ed500005ed500005ed5000039
:0803f8005ed500005ed5000097
:020000040000fa
:106800000ffe23000e8024000e018800000000000f
:10681000000020000000e000020032000001200023
:106820002002880014000700780007000000e00044
:1068300003003a00e0762d0001002000020037003e
:106840000000200001002000810f700001003200d4
:1068500014000700000020000000e00002003200e9
:106860000000020000000000909d020000000000f7
:106870000040da000000fe004440a900a0252200ec
:106880000000e0000300320020002000a00188008a
:106890004440a800000006008a1f78008b1f780083
:1068a0000000060091018800800478000000eb00e1
:1068b0001a003700e284440032a0b4009905ba00ff
:1068c000e284440032a0b4009906ba00e284440095
:1068d00032a0b4000006eb00476fde00fd07b200f7
:1068e000636ce10003003a00ebff07000000eb00df
:1068f0000a003700606ce10004003a00005deb0024
:106900008b05e900fdff3e00040037006168e100ef
:10691000010032000086eb000b00070019c7ba0027
:106920001905ba000e04e00003003a000a00e00076
:10693000e0ff3a0000000600fe07b2009e0188005a
:106940008a047800f5ff3700395dba008b05e9004d
:106950000c003200295dba008b05e9000800320006
:106960000c00e00003003a00e284440032a0b400ce
:10697000f5ff370019ddba008b05e900faff3a0090
:106980008904e800e184440032a0b400000006005d
:106990001004b100070035009001b100040034007c
:1069a0007000b100030035009001b10001003c000f
:1069b00010000500000005006900e100040035003a
:1069c0006d00e100030034000002b100010032005c
:1069d00000000500100005001004b10003003500a0
:1069e0009001b10001003c0010000500000005000e
:1069f000800078001104b100030035009101b1005e
:106a000001003c000050a00000000600000005004e
:106a100003f0a200889fbe008a9fbe008c1f7800f2
:106a200011010700180133006450e1004f003200eb
:106a30006420e1005200320003826c0007003b003a
:106a40000905d0000306d000820f54000c065d003b
:106a50000200390002003200890178000306780044
:106a60008582550004003d000003fd008103fd0008
:106a70008502ea008b854200840f720002003b0011
:106a800060001000e08018006011b8000005eb0005
:106a90007a28e1000a00390006007800c75ddd00b1
:106aa000f707b200878075002d00370082817100e2
:106ab0000a017800610560008180d1000080d30068
:106ac0008502e900f9ff3b00060440008784480086
:106ad00002003b0060041400e0841c000988a3004d
:106ae000070032008a8171008281710061016400b7
:106af0008904d1000884d3008b05e8001700370013
:106b00000978a30013003a000b00e00013003400e2
:106b10008b05e9000804440089844c000a44740091
:106b20000978a3000d003a000b00e00007003400d4
:106b30008b05e9000804440089844c0001003a00f8
:106b40000b0020000978a300f7ff32000001eb00e2
:106b500002003700828171000a0178008700070077
:106b60000cf0a70001f0a000d00037006420e10085
:106b700002003a00838f6c00d00033000801be0091
:106b80000200be00c90037000081eb00020137009f
:106b9000889fbe008a9fbe008c1f7800b20007004d
:106ba000b900330003866c006450e1002e0032000f
:106bb0006420e100330032006150e1002f00320018
:106bc0006120e1003100320085855500eb07b000ff
:106bd00009002000080420000500370008044400d4
:106be00089844c000a0031000603430087834b0070
:106bf0000001530081815b00f8ff33000203be00f7
:106c00000800a0000804440089844c00f6ff390005
:106c1000c639dd008301730001003200130020003b
:106c20008904d1000884d3000998a300050032002c
:106c30000800a7000300a0008904d1000884d30045
:106c40008b05e8008904d1000884d3000001eb0023
:106c50000281d2004900070001f0a1000cf0a7005a
:106c600001f0a000910037006420e10093003200a1
:106c70000801be000200be00f7ff37006120e100fe
:106c80008e0032006000b800f3ff370000002000e3
:106c900001f82700f0ff3700839f68000100e00043
:106ca00002003d0060001000e08018000300e000da
:106cb00002003d0060011100e08119004c01070055
:106cc0004f00e00002003b0060001000e080180070
:106cd0000000060014002000a0023700f4ff2f007f
:106ce0009e0237000001be004a0007000470a700a2
:106cf00003f0a1006509b100160032000d00350057
:106d00006828e10006003500f0ff2f00f1ff2700a2
:106d10000300e00013003b00010028000000050014
:106d200000004000818048008502e900fcff3a0035
:106d300008003700f88f420002003c008000eb00a2
:106d4000000005008100d1000080d3008502e8002a
:106d5000fcff3a000300e00002003b00600010006e
:106d6000e0801800000006004f89de0082017800f4
:106d7000950237006011b800a3023700810020009f
:106d8000618055000b003d000b00200061fe2f00cc
:106d90000100e1001d003400828171006101640086
:106da0008904d1000884d3000000e800faff3a000b
:106db00071002000610064000300700002006000a8
:106dc0000900320061044400e0844c000988a500f9
:106dd000050032008b05e8006808e10002003a0077
:106de0008904d1000884d300f20f20000258e1008a
:106df00005003d00c75ddd00f907b2008980750020
:106e000008007800000006000bf827008b007800cf
:106e100000000500c70ade00f107b200f50fb2005e
:106e200008003200e1cf4200020032000170a000f1
:106e300024000500810f70000100320004080500e5
:106e400044000500810f700002003a0014000500a4
:106e50008502e9000000400081c04800fcff3b00c3
:106e60000170a000240005000004be00e9ff070037
:106e70000003be000405be000200be00e5ff0700df
:106e8000844f7500000006000200be006450e1005f
:106e9000050036006420e100020036000968a30006
:106ea00001003a000800be000160a0004f06780013
:106eb0004f05be004f04be0000000600f0ff2f008b
:106ec000f1ff2700f9ff3700889fbe008a9fbe00b0
:106ed0008c1f7800e4ff0700ebff330003866c0093
:106ee0006450e100240032006420e10027003200f9
:106ef0006150e100220032006120e10021003200f7
:106f00008b854200eb07b1000134b800003ab800ad
:106f10000804420089844a00013ab8000030b800f1
:106f20008880400009014a0004003300000040004e
:106f300081804800020149008b05e900c909dd0094
:106f4000830170000100320013002000c814de002d
:106f50004814dd004709de001200b200c808de0058
:106f60000884700085ff070001f0a1000cf0a70065
:106f700001f0a000cdff37006120e100cfff32001b
:106f80000801be000200be00f7ff37006150e100bb
:106f9000fcff3a00c9ff3700889fbe008a9fbe00f1
:106fa0008c9fbe00820578000004be0099ff070098
:106fb0000800be006420e1000700390002003a002a
:106fc000f1ff2700f0ff2f000160a0001202200057
:106fd00002408800550037006120e10003003a00bc
:106fe0000b00a70001f823005000370001f0a100ba
:106ff000020021009364240036ff07000800be0051
:1070000004003500b2fd2000930c24002d0207007f
:107010000004be000005eb000b00a6004f0dde00d3
:1070200001f0a1000004be0032982f0023ea2300e3
:10703000a5ff07000001eb0003f023000b00a700f1
:1070400003f8230073fe070026ff07000000a700d7
:107050000a00a20044ff07000b00e000030032001a
:107060000200200003f0230069fe070001f0a200e7
:107070000006be00020020009304240092ff0700d7
:107080000801be0063fe0700809fbe000c00be002a
:1070900022a22a00d3a723008bff07004f01be00c6
:1070a0005cfe07000004be0001f0a1000200200009
:1070b0000398230007ff07000800be0019003500f1
:1070c0000001be0080ff07000006be00b2c5290017
:1070d000e36223007cff070022222b00f3942b00a5
:1070e0004cfe07000c01be0077ff0700e27328008a
:1070f00083c0230047fe07000c01be0072ff07009b
:1071000042aa2a00a3e22b0042fe07000c01be00a7
:107110006dff07000801be006bff07000801be00fd
:107120003cfe07000a00a70001f0a2004f06be00c7
:107130004f05be004f04be00000006000001eb003a
:1071400095ff37001400fa00889fbe008a9fbe009a
:107150008c9fbe000005be000206be00680047000e
:107160000c90be000a90be003c0107006400e100e4
:107170001a00320016003e006100e1001a003200e1
:107180006e049000fe0490000e0b90009e0b900089
:107190006011b8009e0590000b38b100d5012000a9
:1071a00082817100610164008703d1000683d300ee
:1071b0008984d3000884d3008502e900f8ff3a00ef
:1071c000eefe07000df0a70001f0a0005e01370001
:1071d000f1ff2700f0ff2f005b01370001f82700c7
:1071e00000002000f7ff37006000b800f5ff37000f
:1071f0006022b800060220000000d0008180d2008a
:107200000482d2008582d2000000a0000202520057
:1072100083825a00030031000202420083824a0046
:107220000000a1000603e900f3ff3a000000060099
:10723000efff07000400be0000000600020ab900cc
:10724000001bb9000200b800810042008100430029
:1072500000000600889fbe008a9fbe0030044200e6
:10726000b0844a0030054b0090854b006000b100af
:107270000898be000a90be000440e10005c8e10085
:1072800006d0e10007d8e1000200310068004000ac
:107290001008e8004f05be004f04be0000000600c5
:1072a000889fbe008a9fbe003004be002005be003d
:1072b0000418540005985c0006185d0007985d00ee
:1072c000110020000440e10005c8e10006d0e10003
:1072d00007d8e100010039008000eb0010881000a1
:1072e0004f05be004f04be00000006001200fa0069
:1072f000889fbe008a9fbe008c9fbe00e0b79f00a3
:10730000f1b79f0082bf9f0093bf9f000605be009c
:107310000404be000000eb00d0b79f00c0b79f0080
:10732000b0b79f00a0b79f0090b79f0000067800fd
:107330005fb19700cfb09700820141003fb0970046
:107340000200e00004003d00370007007e80570087
:10735000c0ff070003003700330007007e8057009e
:10736000cfff0700dfb697000d00e0000c003500ee
:107370006fb29700ffb297000fbb97009fbb9700bb
:1073800010002000010020006011b800000272000f
:107390008182720002037300838373001b00070065
:1073a0000c06e80001042000810f5600e0ff3a00bf
:1073b0000d00e00004003d000802be000a03be000c
:1073c0007e805700a3ff07005fa897000000e00041
:1073d00005003a001fb29700afb297003fb3970085
:1073e000cfb39700090007006fb09700ffb0970078
:1073f0000fb997009fb997004f06be004f05be001a
:107400004f04be000080fa000000060001000700e3
:1074100000000600a4b79f00b5b79f00c6b79f0045
:10742000d7b79f00000006004f09de00828171007f
:10743000b3b79f004f01de00818040008280700062
:10744000a1b79f008fb097004f09de0000004000f9
:107450000200700090b79f007fa897004f01de00e8
:10746000818040008280700081b79f000d0007007e
:107470004f3ade000000400004007000f0af9f00b3
:10748000080007000402420085824a0006034b0000
:1074900087834b00dfff07000802be000a03be001f
:1074a000000006002fb29700bfb297004fb39700bd
:1074b000dfb3970000000600881f78001800200046
:1074c000881f780089ff07008f87e9004f04780044
:1074d00000000600801feb0084ff07008f87e90093
:1074e00000000600889fbe008a9fbe00e00f50008b
:1074f000e08f5800e00f5900e08f59000c003d006c
:107500006044b8006055b8000000540081805c0001
:1075100002015d0083815d00180020001500070056
:1075200008003d00180007000004eb0005003700cc
:107530000004eb000f00070002003d0012000700ee
:1075400018002000dcff07000800e0000600320001
:107550006022b8006033b8000000520081805a00f9
:1075600002015b0083815b004f05be004f04be003b
:1075700000000600e00f5200e08f5a00e00f5b00b1
:10758000e08f5b00000006006044b8006055b80062
:107590000402540085825c0006035d0087835d0061
:1075a00000000600889fbe008a9fbe008c1f7800e6
:1075b000e00f5000e08f5800e00f5900e08f5900b5
:1075c0000d003d006044b8006055b8000000540054
:1075d00081805c0002015d0083815d001c00200051
:1075e0000820e10009a8e1000ab0e1000bb8e100c1
:1075f0000d003d00080037000006eb00e00f5200d0
:10760000e08f5a00e00f5b00e08f5b0006003d005a
:107610006044b8006055b8000402540085825c00e4
:1076200006035d0087835d00aaff07000c00e000f1
:10763000060032006022b8006033b800000052003b
:1076400081805a0002015b0083815b004f06780055
:107650004f05be004f04be00000006008000780009
:107660005002be005003be004439de00f700b200f5
:10767000f37f200003016100090032000218e100dd
:1076800016003a0085017200830173008381730044
:107690000008200015003a004000200013003700c9
:1076a00085017200830173008381730005003a0035
:1076b00004a8be0006a8be00100020000b00370082
:1076c0000201e9000402420085824a0006034b00e1
:1076d00087834b000748a300f9ff32000740a00052
:1076e00004a8be0006a8be0020002000800098006c
:1076f0009200980000000600680447000294be0053
:107700000094be00fc0447008694be008494be0032
:1077100009007800d1ff070008007800cfff0700bc
:1077200099007800814f70000b003b000800be00fc
:10773000b50007004f00b10003003700f3ff27003a
:10774000f2ff2f006110b9004f06be004f05be00ca
:107750004f04be000080fa0000000600889fbe00b3
:107760008a9fbe00841f7800bffd07004f0078008d
:1077700011003300f0ff2f00838f6c0006003b00e8
:10778000040565000a00a7000800370009f0a600fc
:107790001000200008003700820f5400838f5c0027
:1077a000030039001000200001003e00000020000e
:1077b00009f0a7000000ea004f05be004f04be001c
:1077c0000000e00000000600881f78000304780035
:1077d0000300e00007003d0060001000e08018009a
:1077e00060011900e081190002003b0001f02d004a
:1077f000030037000400070008f0a70001f0a00014
:107800004f04780000000600889fbe008a9fbe00db
:1078100000827000040271000482710026003200b0
:107820000004be000200be006011b8006b09200019
:10783000950220000182cf000a0039000541b10005
:107840000082cf00070039000541b1000982cf0056
:10785000040039000541b1000882cf000100390061
:107860000541b10005425200120032000a003b00ff
:1078700082817100610164008100d1000080d30029
:107880008984d3000884d3008b05e8000442e80013
:10789000f7ff3a00070037000804440089844c00d1
:1078a00000004800818048008b05e9000442e9009f
:1078b000f9ff3a0031fd07004f05be004f04be003e
:1078c000000006000400200000003700889fbe0072
:1078d0008a9fbe008c1f78004f26dd0062fd0700e6
:1078e00069fd33006120e100430032006250e10095
:1078f00041003e003e0039006420e1003c003200bf
:10790000058255000f003b000402e80038003a00f1
:10791000800f5300818f5b00350034000800be00eb
:1079200003f0a10001f0a60003f0a0000cf0a700f6
:1079300038fc07005dfd37000603430087834b00da
:107940000c4646000005530081855b0002003300b1
:107950000a03be000c00a0000402e900f6ff3b0091
:10796000850578000602430087824b0004003a0038
:107970006000b80009f0a70001f0a0004bfd37003f
:107980000002520081825a000704e0000400330024
:107990000603430087834b008b05e900faff37009d
:1079a000090578000604be000203be006011b8009d
:1079b000f2fc0700e00f5200e08f5a00070035008c
:1079c00002003c000c08a300040032000601be00c7
:1079d00003f0a0000cf0a7000efc07000a85680069
:1079e00001f0a1000af0a70001f0a0002ffd370070
:1079f0000800be002dfd3700100220000cf0a6008c
:107a0000004088002dfd3700e48240001078a3007c
:107a100007003200640240001178a3003400be0069
:107a20001401be00040032000330a700000006006d
:107a30003500be001501be000330a00000000600a6
:107a4000889fbe008a9fbe008c9fbe008e1f78005c
:107a5000010678000c00e00001003200000e780002
:107a600080047800090578008a047800b905fb00d5
:107a70000b007800d0fb07000000e000f9ff3a009f
:107a8000d0022000808f550003003a0009057800dd
:107a900018c0b300050037000044eb00b00220001e
:107aa000808f550001003a00090578006000b80099
:107ab0008004eb0009077800010037000a05e800a0
:107ac0000a0178000848a30005003a00e3c2b300a9
:107ad0009acf110002003a000844a000f7ff3700d7
:107ae0009a4578008b01fb000303b100e98f510038
:107af00016003e000814a0000801fb00e98f5400a6
:107b00000e0032000248a300010032000e07e90017
:107b10008904e800a200200003002000c7fd070040
:107b200002cdb30002c145000281fb008001eb00e1
:107b30000000410081804900e0ff37000248a300b7
:107b4000deff3a000e07e800dcff370053c6b30043
:107b500083cf5500040032008004eb0053c4b3000f
:107b600083cf55002d003a005a417800d3c2b300ac
:107b7000834f510002003a000834a0000300370090
:107b8000b3c2b300834f510001003a000a05e80078
:107b90000a017800020578003a42780003c3b30076
:107ba000834f5200faff32008402fb000503b1004c
:107bb0008004eb00e98f520015003e008344520020
:107bc0008984fb000a017800124278008402fb00dd
:107bd0000503b100e98f52000d003e006a4bb90069
:107be000834452008984fb0086844400524278001a
:107bf0008402fb000503b100e98f520004003e003f
:107c00006a4bb900834452008984fb008684440097
:107c10000838a300010032008904ea000c00e000eb
:107c2000030032000818a30001003200020e7800a1
:107c30004dfc07000005be000006be006011b80044
:107c400024fc0700000178006000b8000200e0009a
:107c5000580032008e84440032f82f00828f540086
:107c600003003d002202200002408800510037003e
:107c700000082000808f54000700340020022000fc
:107c8000004088000808a3004500320000002000e2
:107c900001f82f00470037000900e0001b003d00fd
:107ca0008904ea0006003700922f200053012500c6
:107cb0000a00be00b6fb07000005be00ea845400bf
:107cc000e98f5400f8ff3c00060037000200200056
:107cd000031224000a00be00adfb07000005be0031
:107ce0008904e9000900e000f8ff3a000a06be0036
:107cf00002002000030820000a00be00f5fb070078
:107d00000000e00021003d001b0037000900e000fa
:107d100007003a001d003700922f20005301250074
:107d20000a00be0068fc07000005be00ea8454009b
:107d3000e9cf5400f8ff3e000600370002002000a3
:107d4000031224000a00be005ffc07000005be000d
:107d50008904e9000900e000f8ff3a000a06be00c5
:107d6000f2ff2f00f3f727000a00be00dbfb07003d
:107d70000000e000050034000808a3000b003200fa
:107d800000002000010828000a0037000808a300ae
:107d9000010032000df0a2000c00be00050037000b
:107da0000000200001f8270002003700000020003a
:107db000010820004f0778004f06be004f05be00a7
:107dc0004f04be00000006001dff37008000eb00de
:107dd0001bff3700800078000100780030417800f8
:107de00003c2b300834f5100faff3200e94f510044
:107df000f8ff3200edc14100834f510003003a000b
:107e00008000780013c0b300050037008041eb000c
:107e1000b4c2b300844f510001003a0080007800e2
:107e20000000eb00020037006a02b90004004100c4
:107e30003101fb000203b100e90f5100faff3600e7
:107e40000304e000010032000000ea000000060028
:107e500003487800000278008100fb00a3002000a6
:107e6000110009008300d8008000fd008001780027
:107e700000c3b30000e241000104e000030032004f
:107e800080c0400071fa9f000000060072fa9f0057
:107e9000000006008001780063816100d016200098
:107ea00010003a0042062000110009008281d8002b
:107eb00001017800e01620000200e00009003a000d
:107ec000c112200083804000021920001100090027
:107ed0008280d800d01620000100e00001003a00a6
:107ee0000000e80000000600889fbe001004be00ed
:107ef000c2032000030020000800be00ccfc0700e5
:107f000070fc8900c2032000030020000800be00ae
:107f1000b7fc07000004be00c203200003002000dd
:107f2000c3fc070080fc8900c2032000030020007e
:107f30000800be00aefc07000004be008201200065
:107f400003002000bafc070090fc89008201200099
:107f5000030020000800be00a5fc07000004be00ce
:107f6000e401400072002000110009008201d800e5
:107f700001017800d2fc890069042000020037006a
:107f8000000454008904e80009007800c1ff0700dc
:107f9000800f5400faff3d00c9fc89006240600078
:107fa000e8fc89008000eb00040037000204540064
:107fb0008100e8000080fb000000d10012e22300f5
:107fc00062c17800024170000281fb00820f540000
:107fd000f6ff3d00b1fc890040f923000808e800e5
:107fe000660050004f04be00000006000400fa00c6
:107ff00041fc2f0062fc81000191b9003002410078
:10800000a0824900e4bf9f00f5bf9f006480570035
:10801000b5ff07000080fa0000000600889fbe0040
:108020008a9fbe0000047800680090006300b900d9
:1080300061de23006bf12300e14d780000804000f9
:108040008b00e800d04878008b80e800104090005a
:108050008048780009c2b3000100e80009487800b0
:10806000480090006300b900c1df2300648145002f
:108070006149780000804000e5804500d0487800e4
:10808000e680450010409000804878000100e8003c
:1080900009487800b80090008941780009417800cb
:1080a000630040006aff0700a8009000a3c3b3006c
:1080b00002c3b3006d80450065ff07009800900083
:1080c000a3c3b30002c3b3007080450060ff070084
:1080d000980078008941780002c3b300738045009e
:1080e0005bff0700d80090004a062000110009003d
:1080f0008a00d800f34040008041eb00094178003d
:108100007680450052ff0700d8009000110009005a
:108110008a00d800a3c0b30002c3b3007880450032
:108120004bff07000b0078004f05be004f04be0058
:1081300000000600adff0700b8ff3700881f780079
:1081400000047800b8009000010078001020b20010
:10815000e10f500005003a000000eb001004980009
:1081600028009000000c7800180037002120b20091
:108170000000eb0022202000828f500017003a0000
:10818000a80090000100e0001400320018019000e7
:108190000200e00011003200480090002721070093
:1081a00098009000810f50000300320038009000ca
:1081b0000003b300300498000000eb0010049800a6
:1081c00028009000000c7800b80090000000eb0040
:1081d0000158a300010032000080eb004f0478003a
:1081e00000000600889fbe0001047800b8009000df
:1081f0008084eb000118a3003a00320018019000bf
:108200000198a30002003a000200e00035003a00a5
:108210000190a0003104980080047800f90fb200aa
:108220000200e00002003a0028009000000c7800f4
:10823000ea8f540005003a000178a30003003a00d9
:1082400088007800d0002000e6ff070018009000aa
:10825000d8009000810f50000b0032000000e800b1
:10826000100498001800780009487800000ce80015
:1082700011c0b30000fc230001487800ea8f5400cd
:1082800018003a000500370088007800094078009f
:10829000cf130700800478001200370038009000e8
:1082a0000088a3000f00320018019000a800900081
:1082b00048009000e120070098009000810f5000d6
:1082c00004003200380090000003b300300498002e
:1082d0008084eb000000eb00100498002800900060
:1082e000000c7800090078004f04be000000060072
:1082f000e68747008e1f7800d0bf9f00e1bf9f0038
:108300000e0037005fba970014407800efb997006d
:10831000934078000201e900814f500004003200d0
:108320000080fb008180fb00010050000600370048
:1083300066875700041fe800030fe8000200e00012
:10834000f0ff3a000000eb004f0778006f00b1002b
:10835000000006008001780002003700b159780063
:108360000201e9000200e000fcff3a000000060004
:108370008001780002192000110009008281d800d4
:108380008000fd0000017800110020000200e000e4
:108390000a003200638161008000eb0007003a00b0
:1083a00042062000110009008281d80001f0a700d8
:1083b0008100ea008100ea00cf08de0001007800b9
:1083c0000000060011bf20000180b90012442f00f8
:1083d0000000410042062000110009000280d80080
:1083e00000000600881f7800000478004242de008a
:1083f00003192000110009000384d800000178004f
:108400008001eb0002014200e0814900d616200005
:108410000643b8000202430083824b00420620005c
:10842000110009000284d8008000fd000100520004
:10843000e0805a004f04780000000600889fbe00cc
:108440008a9fbe000004be00020578000900e80013
:10845000dcff07000a0540008005eb00e18f5400b7
:108460000a00360008007800c1ff07002200200043
:10847000030020000000e000020032001200200093
:10848000030020000205550083855d000800e90017
:10849000d4ff07000000450081804d004f05be005d
:1084a0004f04be0000000600889fbe008a9fbe00e9
:1084b0008c9fbe0000047800d8049000a3fb2f001e
:1084c000898141000080eb008080eb00e2102000f9
:1084d000828f510032003e00c076200000804400b0
:1084e00038019000c8009000d4ff07000006be00cd
:1084f000120020008000eb00207b2000cfff07004f
:108500000005560081855e007200200003002000f7
:108510000a00be0046fb070064004000e0804800ff
:10852000720020000300200041fb07006004980057
:10853000b076200000804400aaff07000c06e90086
:10854000000656007c0498008201200003002000f1
:108550000a00be0039fb070028019000cf91de0021
:108560000000410081804900c20320000300200078
:1085700032fb070018019000cf91de00000041009f
:1085800081804900c2032000030020002bfb07006c
:1085900018017800cf91de00000041008180490081
:1085a0004f06be004f05be004f04be00000006008f
:1085b0000000fa0068815700cfb89700c0ef230091
:1085c000ca0907000080fa0000000600889fbe006c
:1085d0000004be00050037000000fb0089007800a1
:1085e00000ff0700e10f400004003200384078002f
:1085f0000004e000f8ff3a000000eb004f04be006a
:1086000000000600881f7800c1ef2300efff07007d
:1086100000047800c1ef2300a0002000f1fe070055
:10862000080078004f047800000006000001780080
:1086300002007800b041780081cf51000300320081
:108640000304e000f9ff3a000001eb0002007800ab
:1086500000000600b041780031c1510002003a002c
:108660000304e000fbff3a000200fb0000000600ec
:1086700000017800b1417800035978000304e0005c
:10868000fcff3a00000006000000fa00889fbe00d0
:108690008a9fbe00000578000fb99700f08557004b
:1086a0002a0037000201e80054c2b30084cf510011
:1086b00025003a00b24278000502fb000403b10035
:1086c0008b80e9000400e00008003a008105780092
:1086d0009b01780001003700045d78003342780088
:1086e0000404e000fcff3a00180037008105780020
:1086f0009b01780004024200469a230006024200d1
:10870000060478000a037800940378001100090039
:108710008701d80081017800c403780011000900a6
:108720008701d8008003780000c3b30000db43005a
:10873000880f5200f4ff3a008502fb000503b100e8
:108740000505450001003700035d7800924178007f
:108750000304e000d3ff3a00034d78004f05be004c
:108760004f04be000080fa0000000600889fbe0093
:108770008a9fbe008c1f7800000478008204780075
:10878000030578008100e9000106440088057800af
:108790000a0137008904e80050c2b300804f51003d
:1087a00000013a0039407800a1c5b300814f500064
:1087b000e300320028003c00edc05000814f500023
:1087c0008f00320012003c00ebc05000814f50007f
:1087d0005500320007003c00a1832300824f500067
:1087e000ec00320011c4b300814f5000da003a00af
:1087f0004200370081c4b300814f50006f00320047
:108800008140e800814f5000d3003a006d003700ee
:1088100071c5b300814f50008e00320007003c004c
:10882000e4c05000814f50007d00320081c0e8005c
:10883000814f5000c8003a007b00370081c5b3006b
:10884000814f5000a90032008140e800814f500064
:10885000c1003a00b5003700a1c6b300814f5000f7
:10886000600032000f003c00e8c05000814f500013
:108870002900320004003c008140e900814f500093
:10888000b5003a001900370031c6b300814f5000df
:10889000290032008140e800814f5000ae003a00cc
:1088a0003d00370071c7b300814f5000780032009f
:1088b00007003c00eac05000814f50004d003200dc
:1088c000e3c04000814f5000a3003a004e00370043
:1088d00081c7b300814f5000710032008140e80031
:1088e000814f50009c003a008b0037006a009000d6
:1088f0000000400081892300030037006a009000d7
:1089000000004000018e2300e1007800a100370044
:10891000800478009f0037004a009000000040006b
:10892000e1912300f8ff37004a009000000040006a
:1089300081982300f4ff3700da009000c076200011
:10894000809f40009a1f78001a009000801f7800d6
:10895000aa009000811f78003a009000801f7800e4
:108960004a00900000004000e1912300e11f7800e0
:108970006a0090000000400081892300e11f780018
:1089800030842300801f780020f323003eff07007f
:10899000f087570007003700ba009000811f780069
:1089a00080852300801f780020f3230036ff070016
:1089b000e487570021f32300760037002a00900057
:1089c00022003700aa009000c20020001100090018
:1089d0008200d8000100e000f0ff3a008200780039
:1089e000eeff37007a009000801fe800b08523007a
:1089f000ecff37004a009000801fe800e8ff3700d6
:108a00009a009000e5ff37002a009000d1832300f0
:108a1000eb0f50005f003400018423005d0037003d
:108a20009a1f7800deff37007a0090007200200065
:108a3000110009000200d80001017800ea0090004e
:108a4000810f5100010034000000e800801f780011
:108a5000d3ff3700fa0190007200200011000900d6
:108a60008201d8008101780000027800ea009000bd
:108a7000e6804000110009008200d800818f51007b
:108a8000010034000402e800841f7800c4ff3700ae
:108a9000ea009000811f7800e0852300c1ff3700c5
:108aa000da009000c0762000809f40003a009000dd
:108ab000801f78004a00900000004000e1912300f0
:108ac000e11f78006a0090000000400081892300c7
:108ad000e11f780010862300801f780020f3230018
:108ae000e9fe0700ea875700b2ff37009a1f7800b7
:108af0009a009000811f78002a009000801f780063
:108b0000f0862300801f780020f32300defe07009c
:108b1000e8875700a7ff37005a0090004206200060
:108b2000110009000200d8009cff3700da00900015
:108b3000c0762000809f40008087230099ff370087
:108b40000a089000c18323000000e00011003200f9
:108b500011cd81000f00370021f3230050c2b30074
:108b60008048780009007800404178008101e800e1
:108b7000824978008181e8008049eb000204e0002e
:108b800063ff3200030037008c8f5500070032006e
:108b9000805d7800314078000004e000faff3a0080
:108ba000060037008c8f550003003a00804deb0023
:108bb0000000eb0006003700825d78001941780064
:108bc0000204e000f3fe3a00824d78000880550070
:108bd0004f0678004f05be004f04be00000006009f
:108be000800078003104e000feff3a000080ea00d7
:108bf0000080400000000600800178000600370079
:108c00000201e900b142780085597800030278003a
:108c10000504e00006003200030278000200e000d4
:108c2000f7ff3a0002003700005aeb000201e900aa
:108c30000200e000fcff3a0000000600889fbe0032
:108c40000004be000b00370009007800e4ff0700b5
:108c5000000178000800be009c1107000000e00041
:108c6000090032000800e8009900fb006ffe0700d1
:108c7000000478000800e000030032001804e0005f
:108c8000f1ff3a000004eb00080078004f04be003a
:108c9000000006000c00fa00a0bf9f00c0bf9f00ac
:108ca000cfff0700b0bf9f00f0bf9f00100c200057
:108cb000d0bf9f0074815700efb097006c805700c1
:108cc000340007000080fa0000000600881f7800ca
:108cd000f0fe8100c1100700000478000800780051
:108ce00035f707000000e000f9ff3a00e10f44000b
:108cf00003003200f1fe81000800780082110700b5
:108d00004f04780000000600889fbe008a1f78008c
:108d100000047800814478000205780000fd2f00ef
:108d200008004000e90f500002003e0000047800f7
:108d3000100037000800780027f707000000e00067
:108d4000050032000a00e00003003200080078004d
:108d500027f7070000047800080078000cf70700e8
:108d60008000780000c0eb000100e0000600320047
:108d70007805b1008984fb0000c0eb00890f540026
:108d800001003d00084078004f0578004f04be0008
:108d900000000600f0874700889fbe008a9fbe0043
:108da0008c9fbe008e1f7800010578008204780039
:108db000f0fe89000000eb00c0b79f00e0b79f0005
:108dc0000044eb00600137000a05e8000b86fb0059
:108dd0000c007800f8f607000000e0000200320006
:108de000baff07005501370050c2b30080cf5500cd
:108df00043013a008046eb0021c0b3000d467800e5
:108e00000a00780001477800040037004ec0b30024
:108e1000010037002ec0b3000a007800ba45780080
:108e200091c6b30081cf5500a30032001c003e0064
:108e3000e6c0500081cf55007700320011003e009f
:108e4000f7c0500081cf55002c00320006003e00d4
:108e50000b04e000bd003200a1c2b30081cf550079
:108e600082003a002300370081c5b30081cf55004e
:108e70007e003a000e407800b0ef9f001100200005
:108e80002500370041c6b30081cf55008a0032006b
:108e9000e4c0400081cf550074003a00ddff370088
:108ea000f1c6b30081cf55008700320007003e00b5
:108eb000e3c0500081cf55001000320081c0e800af
:108ec00081cf550069003a001600370051c7b30042
:108ed00081cf550078003200e3c0400081cf5500bb
:108ee0000a003200e5c0500081cf55005f003a0013
:108ef0001c0037000c46e800c7ff3700e24f570060
:108f0000c2ff32008ec0b300c3ff37000e407800ae
:108f1000b0ef9f008000eb00c1b79f0000c1b3001d
:108f20006c0037008e407800b1ef9f000c04e00029
:108f300069003a008984e900e4cf500005003a0056
:108f400019007800efb097006109b9000288be00ef
:108f50006100370019007800efb097000108780031
:108f60005d00370059ff07000c04e00002003a00e2
:108f700049007800b0b79f00f0fe8100171007008d
:108f800080057800e18f4500020032006fb797003e
:108f9000140037000b007800e20037000e07e800ed
:108fa0001a00fb00808f550002003a000a05e80015
:108fb000130037000c04e00003003a00bfb0970034
:108fc0008b587800b1b79f00cfe8970001c04600ea
:108fd0008e4f50000a003200f0fe8100ff0f0700a4
:108fe000800578000b00e800e10f50000400360017
:108ff0000b00780070f607000000e000e7ff320089
:109000000c04e000ce003a000844e8003fb09700ae
:109010000c487800ca0037000c04e00003003a0056
:109020000844e800c9007800b1b79f006fb7970007
:10903000bfb59700f0fe8100e80f0700e10f400088
:10904000b80032000c04e00002003a000e07e8000d
:10905000805d78008d46e9004240a900f5ff3c00a4
:109060000b007800b0b79f00b50037008b85fb0080
:1090700001fd2f008b804000e98f500009003e0069
:1090800054fb0700804678008a00780001057800cc
:109090003100fb000003b100e90f5000fbff360078
:1090a0005dff3700f0fe8100cc0f0700808f550078
:1090b00097003a00a10037008e407800b1ef9f0082
:1090c000a0c0b300030037008e407800b1ef9f00ce
:1090d00080c0b300a0ef9f00fcfe0700f0fe8100ff
:1090e000be0f070080057800efb097008100e80010
:1090f000e1b79f000040eb00d0e79f00d0022000c6
:10910000808f550008003a00f0fe8100b30f070081
:1091100080057800efb097008100e800e1b79f007c
:1091200010c0b300d0e79f004fb19700afe89700a1
:109130000b007800f4fe0700e14f40000c003a00fd
:10914000f1fe81000b0078006f1007000804e000ba
:1091500080003a00f0fe8100b00090000000eb00bb
:109160000148a3007c0032000080eb007a00370049
:1091700000032000808f550018003a00f0fe8100a7
:10918000960f070081072000810f500004003a006d
:10919000cfb097000100e000070032000d0037005b
:1091a00081052000810f50000a003a00cfb09700df
:1091b0000100e00007003200f0fe8100870f070089
:1091c000800578006fb097000080e800e0b79f004e
:1091d00002003700f1fe81004b1007006022b8004a
:1091e000c8e79f00090778000404be0001003700ab
:1091f000e3b79f00afe897000181fb008001eb001f
:109200000800be000df807000004be004fb1970033
:10921000afe897000b007800bbfe07000080fb0062
:109220008000eb000004440081844c006fb0970084
:109230008001e8008d46e9000b003200f0fe81005d
:10924000f3b79f00650f0700800578004fb19700c6
:10925000afe897000b007800abfe0700ffb1970066
:10926000e14f4000e2ff3a000802be004fe49700e1
:109270008e047800030778004fb19700afe897009d
:109280000b007800f4b79f0085bf9f009efe07008b
:109290007fb297008fba9700e14f400006003a0076
:1092a000f1fe81000b007800171007006fb79700e0
:1092b0008fba97007fb29700dfe097000104e000cb
:1092c0000200320060021200e0821a000c04e0008a
:1092d0001b003a000844e8008984e9003fe8970051
:1092e000e44f500003003a00190078000488be00e3
:1092f00013003700190078000408780010003700c8
:10930000f0fe8100350f0700800f56000800320084
:10931000e10f400003003200f1fe8100fa0f070068
:109320000c0037000804e0000a003a000a00370089
:109330006fb097000007e800010037006fb7970093
:109340008e007800e1b79f009a4578000b04e0009a
:109350009dfe3a000880fb004f0778004f06be00d4
:109360004f05be004f04be000f01b1000000060013
:109370000c00fa00889fbe0000047800f0ff270070
:10938000d0bf9f008004eb0099bf9f0088bf9f0063
:10939000a8bf9f00200c2000b0bf9f00788157001d
:1093a000cfb0970070805700cf0007000fb897002c
:1093b000094878008fb89700088050004f04be001d
:1093c0000080fa00000006000800fa00889fbe0036
:1093d0008a9fbe000084fb00d1c6b300814f5000bd
:1093e000340036004b062000110009000b84d80021
:1093f00081057800720040004300dd00e9a52300ec
:10940000008044006022b8000600200007fe230010
:109410005001be004000be007d1107000002be00ea
:109420000203be0084bf9f0095bf9f00a6bf9f00a0
:10943000b7bf9f00aa002000110009008a85d8004c
:1094400080057800e9854500c35ddd008b8544001b
:109450003b02be002b03be000fb897009fb89700d9
:109460002fb99700bfb99700691107000002be002d
:109470000203be0084bf9f0095bf9f00a6bf9f0050
:10948000b7bf9f00110009000a84d80001047800ca
:109490004344dd00888444003902be002903be0035
:1094a0000fb897009fb897002fb99700bfb99700e2
:1094b0001d003700ea4f500013003600aa002000bc
:1094c000110009000a84d8000105780069044000f1
:1094d0004344dd00e9a52300088444006022b8006d
:1094e0000600200007fe23003800be002801be0051
:1094f000471107004355dd008a8444003902be004d
:109500002903be00080037004344dd00e0a5230026
:10951000080440006022b8000600200007fe230077
:109520003800be002801be00391107004f05be00fb
:109530004f04be000080fa00000006000800fa0098
:10954000889fbe008a9fbe00d1c6b3000004e00021
:1095500023003d000040ea000004fb00814f500062
:109560000a00340042062000110009000204d8005d
:10957000a9002000110009008900d800e90040007e
:10958000c308dd00eaa5230021003700ea4f5000a0
:1095900010003400a2002000110009000204d800cd
:1095a00001017800690040004300dd00e1a52300cf
:1095b000008040004311dd00828040003102be0087
:1095c0002103be005001be004000be001011070084
:1095d000380037004344dd00e0a5230032003700a7
:1095e0000004fb00814f500023003400420620009d
:1095f000110009000204d800a90020001100090090
:109600008900d800e9004000c308dd00ea9a230081
:10961000810045003102be002103be008b092000fd
:109620008a8545003b00be002b01be00f8100700f4
:109630000002be000203be0084bf9f0095bf9f00d2
:10964000a6bf9f00b7bf9f00110009000904d80002
:10965000010478004344dd00080545003a02be00dd
:109660002a03be000fb897009fb897002fb9970044
:10967000bfb99700d5ff3700ea4f5000080034000b
:10968000a2002000110009000204d80001017800a6
:10969000690040004300dd00e19a2300c4ff370069
:1096a0004344dd00e09a2300080440003800be0077
:1096b0002801be004f05be004f04be000080fa0026
:1096c00000000600d0019000028151004240a90034
:1096d0000300340010017800014978000208e80016
:1096e00001007800000006006f02b000889fbe00f5
:1096f0008a9fbe008c9fbe008e1f780000067800f7
:10970000b1af9f0092b79f006000b8006011b80031
:10971000d0af9f00e1af9f00f2af9f0083b79f00e3
:109720008006eb00c5043700bfa897008100e80061
:10973000b1af9f0051c2b300814f500003003a0007
:10974000bfa897000007eb0011003700bc00900095
:109750000000fb000168a300070032000d01780043
:10976000800078000c007800d6ff07000000e000c1
:1097700005003a00b10437008c00780099fa070020
:10978000e10f4000ad0432008d06e800ab04370065
:109790000101780031407800d3c2b300834f5000fc
:1097a0000c00320007003c00edc15100834f500017
:1097b0000a003200ebc14100834f50000d003a0017
:1097c0000800370003c3b300834f500009003a007c
:1097d000060037000e30a000edff37000e00a0009d
:1097e000ebff37000e10a000e9ff37000e20a000ad
:1097f000e7ff37000e18a300010032000e00a100a1
:109800000e38a300010032000e20a1008000fb00f2
:109810000103b100e98f50000c003e000200780007
:109820008005eb006a59b900b005fb000b03b100dd
:1098300082854500000178009000fb000103b10023
:10984000e98f5000f7ff3600080037008005eb0075
:10985000a1c2b300814f500004003a009fb19700ad
:10986000c305780093b79f000201e800e0c2b3008f
:10987000924f100016003a000ee0a0006440500025
:10988000d24f100003003200020078008001eb008c
:10989000080037009fb297004503780095b79f00f6
:1098a000e6b79f000201e8000c0037006a19b90012
:1098b0008281400000017800b000fb000103b1008c
:1098c000e98f5000f9ff3600e3b79f00030037002f
:1098d0000ec0a0008003eb00e7b79f008201780074
:1098e0003340780003017800c1c6b300814f5000b7
:1098f0002b003200b3af9f0014003c00e8c05000c2
:10990000814f50002400320009003c00ecc05000a0
:10991000814f50002a003200ebc04000814f5000c0
:109920008c0032000004e00049043200a20037003d
:1099300061c6b300814f50001b003200e3c04000fd
:10994000814f50009c003a001300370031c7b3002c
:10995000814f50001e00320007003c00e4c0500060
:10996000814f5000130032008140e800814f5000c9
:1099700091003a001200370051c7b300814f5000e8
:1099800092003200e3c04000814f50008a003a004c
:10999000e0cf9f000c003700e0cf9f008d00370024
:1099a0000e40a000cdff3700e0cf9f000ea0a0002a
:1099b00088003700e0cf9f000e60a00085003700d0
:1099c000e0cf9f000e50a0000e70a0008100370075
:1099d000e0cf9f009fb097004100780091b79f00b3
:1099e000000478000000e00001003a0048d623009f
:1099f000880078000000eb00010037000000e8005c
:109a0000614178000204e000fcff3a008004780025
:109a10006fb197000200e00003003200890f51008f
:109a200001003100820478000005eb00898f5500a9
:109a30000100360009855500680767002a003a00d2
:109a4000110037003c0090000068a30007003200be
:109a50000d017800010220000c00780019ff0700ba
:109a60000000e00006003a00060037008c00780095
:109a700000022000dbf90700e10f40000100320086
:109a80008d06e8000a05e9000a00e000edff3a0053
:109a90000085eb00140037003c0090000068a30034
:109aa0000900320008007800b000fb0000047800d4
:109ab0000d0178000c00780002ff07000000e000b4
:109ac00008003a0008003700880078003100fb00e9
:109ad000010478008c007800c2f90700e10f400013
:109ae000010032008d06e800090078008004e900da
:109af0000000e000e8ff3a000e00e000cf03320073
:109b0000110037003c0090000068a30007003200fd
:109b10000d017800010220000c007800e9fe07002a
:109b20000000e00006003a00060037008c007800d4
:109b300000022000abf90700e10f400001003200f5
:109b40008d06e8000a05e9000a00e000edff3a0092
:109b5000ba0337009fb197004302780093b79f0084
:109b6000cfa2de00482bdd004820de00000073009d
:109b7000c828de00e0cf9f000e48a3000800320096
:109b80000004e00006003200e14f40000400320013
:109b9000f0cf9f0084d79f002900200002003700eb
:109ba000f4cf9f0019002000e7fc2f008f834300b3
:109bb0000704e80096ff3700e0cf9f00e8fc2f0085
:109bc0000f0444001900200091ff3700e0cf9f00f0
:109bd0000e0cb30001702000810067007000670068
:109be0000100e000190232000ec8a300020032009a
:109bf00061002000e1b79f000000e0000600320095
:109c00001fb09700680050003002be002003be0065
:109c100090b79f00060037001fb197004200be00ba
:109c200092b79f00eb0e07000002be000203be00c9
:109c3000a4b79f00b5b79f00c6b79f00d7b79f00d6
:109c40006022b8006033b8002fb09700bfb0970013
:109c50004fb19700dfb19700490e07000000e00008
:109c60000a003d002fb09700bfb097004fb197009a
:109c7000dfb1970003f0a200a0b79f00b1b79f002b
:109c8000c2b79f00d3b79f003e00b3000000eb00b7
:109c900090af9f006022b8006033b8002fb09700eb
:109ca000bfb097004fb19700dfb19700980e070043
:109cb0000000e0003400320024fd2f000f024200bb
:109cc0002fb09700bfb097004fb19700dfb197005a
:109cd0002f0f07001fa897000000e9006302b900da
:109ce000a2002000110009000202d80090af9f00de
:109cf0000000e00002003d000000e90090af9f007e
:109d00001fac97000840ea000cfe07002fb2970036
:109d1000bfb297004fb39700dfb397003c0f070027
:109d20000002be000203be00d4af9f00e5af9f005b
:109d3000f6af9f0087b79f006022b80006002000a2
:109d400007ff23000e0e07000000e00002003d00a8
:109d50000804e9000b0037006022b800060020006c
:109d6000470224005fa89700efa897007fa99700fb
:109d70008fb19700070e07000000e00002003500d9
:109d80000804e80098af9f00efb29700ec8f5200f4
:109d90000f003c00054078008bfd07000002be006c
:109da0000203be002fb09700bfb097004fb19700dd
:109db000dfb19700740d07000002be000203be0071
:109dc000a4b79f00b5b79f00c6b79f00d7b79f0045
:109dd0001fac9700e90f540015003c006022b8004a
:109de0006033b8002fb09700bfb097004fb1970015
:109df000dfb19700460e07000000e000310032009e
:109e00002fb09700bfb097004fb19700dfb1970018
:109e10008f0e0700e00f5000e08f5800e00f590050
:109e2000e08f590027003a00e10f5400250034006c
:109e30000400200005002e00b6e0220017012400d7
:109e40005fa89700efa897007fa997008fb19700b0
:109e5000cb0d07000000e00002003d006904540043
:109e6000010037006804540098af9f002fd097007e
:109e7000b2fd07000002be000203be00d4af9f0087
:109e8000e5af9f00f6af9f0087b79f002fb0970008
:109e9000bfb097004fb19700dfb19700c20d070028
:109ea0006b0e07000004be006000b8006011b8002f
:109eb000a0b79f00b1b79f00c2b79f00d3b79f0064
:109ec000160037002fb09700bfb097004fb1970032
:109ed000dfb197005e0e07000004be00a80e070069
:109ee0000002be000203be002fb09700bfb0970073
:109ef0004fb19700dfb197003b0f07000002be0093
:109f00000203be00a4b79f00b5b79f00c6b79f006d
:109f1000d7b79f000000eb0090af9f00c1d6230091
:109f200010c0b30005003700e4804000b10f5400ba
:109f3000a18f5c00030039000040e800ea4f5000a8
:109f4000f9ff3a00e0cf9f009fa89700818055005d
:109f5000efb29700858050000000fb0000855000a4
:109f60000500e000010032000a05e9006300670017
:109f7000010032000a05e9000e28a3003900320072
:109f8000610167000e18a3000f0032003c00900032
:109f90000068a30006003200b10220000200e000c9
:109fa000010032008180e8000d0178000d003700cb
:109fb000b00220000200e000010032000080e80052
:109fc0008c0078000e0037000200e0002200320012
:109fd0003c0090000068a300070032000d017800eb
:109fe000010220000c007800b6fd07000000e00030
:109ff00006003a00180037008c00780000022000ac
:10a0000078f80700e10f4000130032008d06e800e9
:10a01000110037003c0090000068a30007003200e8
:10a020000d017800010320000c007800a5fd070059
:10a030000000e00006003a00060037008c007800bf
:10a040000003200067f80700e10f40000100320024
:10a050008d06e8000a05e9000a00e000edff3c007b
:10a06000570037000e38a30014003a0011003700e3
:10a070003c0090000068a300070032000d0178004a
:10a08000010220000c0078008efd07000000e000b7
:10a0900006003a00060037008c007800000220001d
:10a0a00050f80700e10f4000010032008d06e80083
:10a0b0000a05e9000a00e000edff3c0061016700cd
:10a0c0000e18a3000e0032003c0090000068a300b0
:10a0d00005003200b10220000200e0002200320040
:10a0e0008180e80020003700b00220000200e0007c
:10a0f000010032000080e8008c0078002c0037005e
:10a100000200e0002e0032003c0090000068a30036
:10a11000030032000d017800010220001300370017
:10a120008c00780000022000210037003c019000e4
:10a13000c0d623008100fb000268a300100032009b
:10a14000c208dd00810040001101be000800be0011
:10a1500027f40700a20020000300200034f40700c9
:10a1600001032000808040000d0178000c00780081
:10a1700054fd07000000e00010003a001000370016
:10a18000c208dd00810040001101be000800be00d1
:10a1900017f40700a20020000300200024f40700a9
:10a1a00002032000000141008c00780002007800ca
:10a1b0000cf80700e10f4000010032008d06e800b6
:10a1c0006fc897008040e900e1cf9f000004e000e5
:10a1d000d6ff3a00130037003c0090000068a3004f
:10a1e000070032000d017800010320000c00780008
:10a1f00034fd07000000e00006003a0006003700ca
:10a200008c00780000032000f6f70700e10f400003
:10a21000010032008d06e8001fa897000000e90049
:10a2200090af9f001fa897000000e000eaff3c00ed
:10a230006fb39700e80f53000300340080c0b300f1
:10a24000e0cf9f0002003700cfeb9700e7cf9f00e1
:10a250006fc897008005fb00efb097008b8550001a
:10a260000004e000100032003c0090000068a300f1
:10a27000070032000d017800e10220000c00780098
:10a2800010fd07000000e00006003a00060037005d
:10a290008c007800e0022000d2f70700e10f4000b8
:10a2a000010032008d06e8006fc89700a3fc07008c
:10a2b0000002be000203be002fb09700bfb097009f
:10a2c0004fb19700dfb19700d10d0700600d070077
:10a2d0002d0037003c019000c1d623000000fb0098
:10a2e0000268a300100032004200dd0080804000c0
:10a2f0001101be000800be00bdf30700a20020004f
:10a3000003002000caf30700010320008080400002
:10a310000d0178000c007800eafc07000000e00066
:10a3200010003a00100037004200dd00808040003d
:10a330001101be000800be00adf30700a20020001e
:10a3400003002000baf307000203200000014100cf
:10a350008c00780002007800a2f70700e10f4000af
:10a36000010032008d06e8006fc997000200fb0073
:10a370004200dd00c1d62300008040001001be0075
:10a380000800be00aaf307000004be00efc8970053
:10a390000140e900e0cf9f000104e000cdff3a005a
:10a3a000110037003c0090000068a3000700320055
:10a3b0000d017800010320000c007800c1fc0700ab
:10a3c0000000e00006003a00060037008c0078002c
:10a3d0000003200083f70700e10f40000100320076
:10a3e0008d06e8008b05e9000b00e000edff3a0068
:10a3f0000e38a300910132000a00e0008f01340002
:10a400003c0090000068a300070032000d017800b6
:10a41000010220000c007800aafc07000000e00008
:10a4200006003a00060037008c0078000002200089
:10a430006cf70700e10f4000010032008d06e800d4
:10a440000a05e900eeff3a007c0137008e00780033
:10a45000010cb20011003a000000e00004003200dc
:10a460009fb197004304be0093b79f0004003700dc
:10a470001fb297004404780094b79f00cfc4de0059
:10a48000e00f5400e08f5c000e003d003e00b30082
:10a4900060041400e0841c000a0037000000e000a3
:10a4a000040032009fb297004504be0095b79f009c
:10a4b000040037001fb397004604780096b79f004a
:10a4c0008004eb00efb397000700e00006003a00bd
:10a4d0000880740000f0a7000000ea000000e90016
:10a4e0004f00de00e0b79f000e007800000cb200c5
:10a4f000c0af9f0000042000cfa89700808f5000bd
:10a500002300320003003c000100e000080032009c
:10a510002d003700000820004fa99700800f510040
:10a520000d003200000c2000800f510026003a0080
:10a53000c1d6230010c0b300e4804000b10f540026
:10a54000a18f5c001f0039000040e800ea4f500076
:10a55000f9ff3a001b00370010c0b30002012000d1
:10a5600003002000820f5400838f5c001500390027
:10a57000441add00cc11de00830172004411dd00bd
:10a580000040e800e84f5000f6ff3a000d003700a9
:10a5900010c0b3008200200003002000820f54008e
:10a5a000838f5c0007003900c31add00cd11de0087
:10a5b000838172004311dd000040e800eb4f500042
:10a5c000f6ff3a00e0cf9f006fcb97000600fb003c
:10a5d000efb39700870f500002003d00e7cf9f00c8
:10a5e00004003700efb09700808f500001003d005d
:10a5f000e0b79f000b00e00003003200630067003b
:10a60000010032008b05e9000ee8a30006003200cd
:10a610006fb19700828f550002003400828555008b
:10a62000010037008005eb00efc997000300fb0035
:10a630000002eb00a4b79f00808f55000200340099
:10a6400000805500a0b79f000e28a3003c003200f8
:10a65000610167000e18a3000f0032003c0090005b
:10a660000068a30006003200b10220000200e000f2
:10a67000010032008180e8000d0178000d003700f4
:10a68000b00220000200e000010032000080e8007b
:10a690008c0078000e0037000200e000100032004d
:10a6a0003c0090000068a300070032000d01780014
:10a6b000010220000c00780002fc07000000e0000e
:10a6c00006003a00060037008c00780000022000e7
:10a6d000c4f60700e10f4000010032008d06e800db
:10a6e000afb297000500e000520032000505780087
:10a6f0003c0090000068a300070032000d017800c4
:10a70000010320000c007800eefb07000000e000d1
:10a7100006003a00060037008c0078000003200095
:10a72000b0f60700e10f4000010032008d06e8009e
:10a730000a05e900eeff3a00aab79f003d00370086
:10a740002fb397000600e000160032000e38a30079
:10a7500014003a00060578003c0090000068a30051
:10a76000070032000d017800010220000c00780083
:10a77000d4fb07000000e00006003a0006003700a6
:10a780008c0078000002200096f60700e10f4000e0
:10a79000010032008d06e8000a05e900eeff3a00ec
:10a7a000aab79f00610167000e18a3000f003200d6
:10a7b0003c0090000068a30006003200b1022000b7
:10a7c0000200e000010032008180e8000d01780005
:10a7d0000d003700b00220000200e000010032004e
:10a7e0000080e8008c0078000e0037000200e000d6
:10a7f000100032003c0090000068a3000700320007
:10a800000d017800010220000c007800adfb07006c
:10a810000000e00006003a00060037008c007800d7
:10a82000000220006ff60700e10f40000100320037
:10a830008d06e800efb397000702e9006320b90036
:10a8400000017800a2af9f004222dd00c0d62300a5
:10a850000002420004057800cfad97005c0037008d
:10a86000efb197008301e900e3b79f0000042000e7
:10a87000808f55003700320003003c000b00e000e1
:10a88000070032003d00370000082000808f55008f
:10a8900020003200000c2000808f550037003a0065
:10a8a0000e48a300100032001a02be000401be00d0
:10a8b0000800be00f4b79f0085bf9f004cf2070060
:10a8c000e0cf9f000000fb00cf80de007fb297004a
:10a8d0008fba97000401be0058f20700000454002c
:10a8e00081845c00070037001a017800110009001c
:10a8f0000284d800a2002000110009000280d800c4
:10a90000e1cf9f006fca97000443b000e4cf9f00df
:10a910001a00370030d523000e58a3000100320082
:10a9200020d42300c1d62300810055000801be00b9
:10a930008100e900030033008301d1000281d300cc
:10a94000fbff37006f01610060417900e2cf9f009b
:10a950000a0037000800be00afaa97008502e90090
:10a96000030033008100d1000080d300fbff3700db
:10a97000674060000043b000e0cf9f00bc00900043
:10a980006fcb97000600fb000168a30007003200b0
:10a990000d017800800078000c00780049fb07006a
:10a9a0000000e00005003a00050037008c00780048
:10a9b0000cf60700e10f4000010032008d06e800b0
:10a9c000afab9700e3835300a7af9f00640555002a
:10a9d0006fb097000000e000a1ff3a000e38a3001e
:10a9e00016003200afb097000100e0001300340001
:10a9f000010578003c0090000068a30007003200c9
:10aa00000d017800010220000c0078002dfb0700ea
:10aa10000000e00006003a00060037008c007800d5
:10aa200000022000eff50700e10f400001003200b6
:10aa30008d06e8000a05e900eeff3a003fa99700fd
:10aa400012407800e0cf9f000004e00036fb3a009f
:10aa50000d0078004f0778004f06be004f05be007e
:10aa60004f04be006f02b10000000600889fbe00c8
:10aa70008a9fbe000084fb00d1c6b300814f500006
:10aa8000200036004b062000110009000b84d8007e
:10aa900081057800720040004200dd00ead023000a
:10aaa000000045000200200003f023001000be005b
:10aab00005f107000002be00a900200011000900f6
:10aac0008985d80080057800e9854500c25ddd00f4
:10aad0008b0545001b01be000400be00faf0070014
:10aae0000002be00110009000984d80001047800aa
:10aaf0004244dd00080545001a01be000400be0006
:10ab000018003700ea4f500010003600aa0020005d
:10ab1000110009000a84d80001057800690440008a
:10ab20004244dd00e9d023000884440002002000f4
:10ab300003f023001800be00e3f007004255dd00db
:10ab40008a8444001901be00060037004244dd003b
:10ab5000e0d02300080440000200200003f023009e
:10ab60001800be00d8f007004f05be004f04be001d
:10ab700000000600889fbe008a1f7800d1c6b3007f
:10ab80000004e00025003d000040ea000004fb0056
:10ab9000814f50000e0034004206200011000900d1
:10aba0000204d800a9002000110009008900d80083
:10abb000e9004000c208dd00ead023008100450022
:10abc0001101be00d0ea8100e1ea810023003700d4
:10abd000ea4f50000e003400a200200011000900ce
:10abe0000204d80001017800690040004200dd0045
:10abf000e1d02300008040004211dd00828040004f
:10ac00001101be001000be00aff007002b0037009e
:10ac10004244dd00e0d02300260037000004fb00a2
:10ac2000814f500017003400420620001100090037
:10ac30000204d800a9002000110009008900d800f2
:10ac4000e9004000c208dd00aacd230081004500d4
:10ac50001101be0030e9810041e981009af007004e
:10ac60000002be00110009000904d80001047800a8
:10ac70004244dd00080545001a01be000400be0084
:10ac8000e1ff3700ea4f500008003400a200200026
:10ac9000110009000204d800010178006900400099
:10aca0004200dd00a1cd2300d2ff37004244dd0089
:10acb000a0cd2300080440001800be004f05780016
:10acc0004f04be0000000600d00190000281510038
:10acd0004240a900030034001001780001497800c7
:10ace0000208e8000100780000000600af02b00092
:10acf000889fbe008a9fbe008c9fbe008e1f78007a
:10ad000000077800a1af9f00f2af9f006055b80028
:10ad10000000eb00c0b79f00a4083700afa8970061
:10ad20008100e800a1af9f0051c2b300814f5000e5
:10ad300003003a00afa997000000eb0013003700b2
:10ad4000be0090000000fb000168a3000700320075
:10ad50004fb19700800078000e007800daff0700fe
:10ad60000000e00005003a00900837008e007800ef
:10ad70001cf50700e10f40008c0832004fb197002e
:10ad80000201e800c2b79f008808370083007800fe
:10ad900033417800b4c2b300844f51001300320035
:10ada00007003c006b425200844f51000d003200fe
:10adb00063424200844f510012003a000d003700f8
:10adc000d4c2b300844f51000400320063424200f9
:10add000844f51000b003a00080037000030a000fb
:10ade000eaff37000000a000e8ff37000010a000d5
:10adf000e6ff370000b0a000e4ff37000020a0000d
:10ae0000e2ff37000018a300010032000000a1009b
:10ae10000038a300010032000020a1008201fb00e5
:10ae20000303b100e98f51000e003e0001017800dc
:10ae30008001eb0093b79f006a1ab900b201fb00d2
:10ae40000303b10084814100820078001202fb00fc
:10ae50000403b100e90f5200f7ff360093b79f00db
:10ae60000a0037000002eb0094b79f00a3c2b300b2
:10ae7000834f510005003a00ffaa97004501780072
:10ae8000f5af9f0092b79f008100e800e2c2b300d7
:10ae9000914f110019003a0000e0a000a0b79f00f8
:10aea000a0c2b300d14f10000400320001007800ae
:10aeb0008001eb0083b79f00090037007faa97004d
:10aec000c4027800f4af9f0085b79f008100e800be
:10aed000afb197000e0037006a1ab9008401410033
:10aee000800078003001fb000203b100e90f51003f
:10aef000f9ff360083b79f00f5ff370000c0a000c0
:10af0000a0b79f000000eb0080b79f00f0ff370064
:10af100031407800a1af9f0072c6b300824f50004d
:10af20003500320018003c00a3b79f0031c6b300c3
:10af3000814f5000d00032000e003c00fcc0500099
:10af4000814f50004200320006003c000004e00047
:10af50001b08320081c0e900814f5000e0003a0038
:10af60003300370081c5b300814f5000dc003a0048
:10af70004400370051c6b300814f50002100320019
:10af800026003c002100370002c7b300824f50006a
:10af90003b0032000b003c0064415100824f5000e6
:10afa0001c003200a3b79f00f1c6b300814f5000d0
:10afb0002e003200e6c05000814f5000c8003a0019
:10afc00012003700a3b79f0051c7b300814f500054
:10afd000c8003200e3c04000814f5000040032003e
:10afe000e5c05000814f5000bd003a002d003700f1
:10aff000a0cf9f0027003700a3b79f00a0cf9f00de
:10b0000017003700a0cf9f000d003700a0cf9f0092
:10b01000bc0037000340a000bdff3700a0cf9f0059
:10b02000afb1970003a0a000a3b79f00b500370001
:10b03000a0cf9f002fb297000450a000a4b79f009c
:10b04000afb297000580a000a5b79f00ad00370004
:10b05000a0cf9f002fb097000050a000a0b79f0086
:10b06000afb097000190a000a5003700a0cf9f00cf
:10b070002fb197000260a000a2b79f00a100370087
:10b08000a3b79f00a0cf9f00afb197000350a000cf
:10b09000a3b79f002fb297000470a000a4b79f0031
:10b0a00098003700a0cf9f00ffaa970045007800c6
:10b0b000f5af9f00000678000000e00001003a00b4
:10b0c0006cdb23008c0078000000eb0001003700ef
:10b0d0000000e800614178000204e000fcff3a0053
:10b0e000800678000fb097000000e00003003200f7
:10b0f0008d0f500001003100800678000004eb0045
:10b100009fb097008d8f5000010036000d845000d5
:10b110002fb19700e804610035003a00acb79f00fa
:10b12000bdb79f000a06be00cfb5970011003700db
:10b130003e0090000068a300070032000b01780079
:10b14000010220000e007800dffe07000000e00092
:10b1500006003a00060037008e007800000220004a
:10b1600020f40700e10f4000010032008b05e800e9
:10b170000804e9000800e000edff3a00cbb79f00ab
:10b180000c05be002fb69700bfb697000084eb00f9
:10b19000aab79f00bbb79f00170037003e00900082
:10b1a0000068a300090032000c007800b000fb002a
:10b1b000000678000b0178000e007800c2fe070040
:10b1c0000000e00008003a000c0037008c00780016
:10b1d0003100fb00010678008e00780001f40700c2
:10b1e000e10f4000050032008b05e8000300370046
:10b1f000aab79f00bbb79f00cfb597000d0078009e
:10b200008006e9000000e000e4ff3a00cbb79f00b1
:10b210002fb59700bfb597000900e0006307320023
:10b22000cfb49700110037003e0090000068a300e3
:10b230000700320009017800010220000e007800aa
:10b24000a1fe07000000e00006003a0006003700fb
:10b250008e00780000022000e2f30700e10f4000ba
:10b26000010032008904e8000804e9000800e00059
:10b27000edff3a004c073700ffa997004300780024
:10b28000f3af9f00cf80de00c809de00480add0072
:10b290004801de0002017200a2cf9f00afb297000a
:10b2a0000548a300080032000204e0000600320056
:10b2b000e14f410004003200b2cf9f00c0cf9f0099
:10b2c0002d00200002003700b0cf9f001d0020009d
:10b2d000a0fc2f000f0040000006e80081ff3700af
:10b2e000a0cf9f00acfc2f000f0646001d002000e1
:10b2f0007cff3700a0cf9f00afb09700010cb300d8
:10b30000a1b79f00017020002fb19700810061005c
:10b31000700061000100e000e104320002c8a300f7
:10b32000020032006300200083b79f000000e000ad
:10b33000080032007faa9700680252003400be0065
:10b340002401be00f4af9f007eef07000004be00a2
:10b3500003003700ffaa97004504be00f5af9f0029
:10b360006011b8000800be005aee07000000e000bf
:10b3700004003d0009f0a2002fb097003000b30098
:10b38000a0b79f000000eb00f0a79f006011b8007d
:10b390000800be007c0907000000e0002400320025
:10b3a000e2fc2f000f0141000800be0095090700d4
:10b3b0007fa097000000e9006302b900a20020000e
:10b3c000110009000202d800f0a79f000000e00071
:10b3d00002003d000000e900f0a79f007fa6970053
:10b3e0000c40ea00e3fd07000801be00b6ee0700ce
:10b3f0000005be000200200003f8230035ee070020
:10b400000000e00002003d000c06e90007003700e4
:10b4100002002000031224000a00be002fee0700e5
:10b420000000e000020035000c06e800fca79f00c9
:10b430007fa697002fb197000288a30007003a006b
:10b440000298a300ae023200e40f4600030035006c
:10b450008fb19700830f5600650235000fb2970039
:10b460000400e00005003200afb297000598a30089
:10b47000020032000402e90084b79f000fb0970079
:10b48000e80f50000300360080c0b300a0cf9f003b
:10b49000020037008fe09700a1cf9f006011b80035
:10b4a0000800be00380907000000e0003300320049
:10b4b000afce97000d405600aefd07000001be0064
:10b4c0000800be00b2ed07000004be00110907002d
:10b4d00028ee07000001be000800be004ced07008a
:10b4e0000200200003f02300fced07000000e00054
:10b4f000050035000200200003f023000800be0014
:10b5000044ed07000004be000800be00010907006a
:10b510000d01fb008201e800c219dd00e4db23001d
:10b5200083014200b30f5000a38f58000700390079
:10b53000d2cc2c00c3dc23000800be0062ee070062
:10b540000004be000c06e8000b0037004211dd00cd
:10b5500002014200b20f5000a28f580007003100d4
:10b5600002002000031224000800be0056ee07006f
:10b570000004be000c06e900fca79f0001a020000b
:10b580002fb197008100610000202000808f5000c3
:10b5900026003a008fb19700ea8f51000200340074
:10b5a000a400200084b79f000800be00d90807004f
:10b5b000070037008fb297008502e90085b79f002a
:10b5c000a2002000030020000c00be0008ef0700ce
:10b5d0000006be00e00f5000e08f58000600320069
:10b5e000a20020000300200011ef0700e00f500030
:10b5f000e08f5800efff32002fc897008000fb005b
:10b600000fb19700810f510008003d00024050002b
:10b6100058fd07000001be000800be005ced0700f9
:10b620000004be008fe19700a3cf9f001fb29700d8
:10b63000650052008fb297000500500090b79f0040
:10b640000500e00003003a002fb0970000b8a30007
:10b65000030032009fb097008100e90091b79f007e
:10b660002fb1970063006100030032009fb1970083
:10b670008301e90093b79f002fb297000428a3002d
:10b68000530032003e009000610162000418a300e4
:10b69000180032000068a3000a003200b102200046
:10b6a0000200e000010032008180e8004fb1970005
:10b6b0000e00780084fd07000000e00009003a0059
:10b6c0003a003700b00220000200e0000100320022
:10b6d0000080e8008e007800c2f20700e10f400011
:10b6e00032003200cfb297008502e80005067800ec
:10b6f0002f0037000200e0002c0032000068a30099
:10b70000070032004fb19700010220000e007800c0
:10b710006dfd07000000e00006003a00230037003e
:10b720008e00780000022000aef20700e10f40001a
:10b730001e0032004fb097000000e80000067800bd
:10b740001b0037003e0090000068a3000b00320091
:10b750000c017800010320000e007800f4b79f0070
:10b7600085bf9f0058fd07007fb297008fba9700f2
:10b770000000e0000a003a000a0037008e0078005e
:10b7800000032000f4b79f0085bf9f0095f20700db
:10b790007fb297008fba9700e10f4000010032009e
:10b7a0000c06e8008904e900030037004fb6970053
:10b7b0000802be009fb497000900e000e1ff3c00d2
:10b7c00099b79f00ccb79f000404be004f0037001c
:10b7d000afb097000138a3001c003a004fb69700a5
:10b7e000d8af9f00e9af9f009fb4970011003700ca
:10b7f0003e0090000068a300070032000c017800b2
:10b80000010220000e0078002ffd07000000e0007c
:10b8100006003a00060037008e0078000002200083
:10b8200070f20700e10f4000010032000c06e80052
:10b830008904e9000900e000edff3c0099b79f0092
:10b84000ccb79f005fac9700efac97003e00900034
:10b85000afb19700618161000318a30018003200a6
:10b860000068a3000a003200b10220000200e000dc
:10b87000010032008180e8004fb197000e0078008f
:10b8800011fd07000000e00009003a001f0037002a
:10b89000b00220000200e000010032000080e80059
:10b8a0008e0078004ff20700e10f400017003200d1
:10b8b0004fb297000402e800c4b79f00130037009e
:10b8c0000200e000110032000068a300070032000f
:10b8d0004fb19700010220000e007800fafc07002b
:10b8e0000000e00006003a00080037008e007800f3
:10b8f000000220003bf20700e10f4000030032008d
:10b90000cfb297008502e800c5b79f000800be00cf
:10b91000000807000006be003e019000e0db2300a7
:10b92000afc997008300fb000268a3000d0032003e
:10b93000c208dd00010040001001be000c00be0086
:10b940002bee070001032000808040004fb19700dc
:10b950000e007800dcfc07000000e0000d003a005b
:10b960000f003700c208dd00010040001001be00da
:10b970000c00be001eee0700020320000001410083
:10b980008e0078000200780016f20700e10f4000f8
:10b99000030032004fb297000402e800c4b79f00d2
:10b9a000afca97000500fb004200dd00e1db230089
:10b9b000008040001001be000c00be001cee07001d
:10b9c0000006be000fb097000000e00003003a0040
:10b9d000afb0970001b8a300660032003e009000af
:10b9e0000068a300070032004fb19700e102200079
:10b9f0000e007800b4fc07000000e00006003a00ea
:10ba0000080037008e007800e0022000f5f1070002
:10ba1000e10f4000030032004fb197000201e8003f
:10ba2000c2b79f002fcc9700cfb4970033003700e8
:10ba3000afb197000398a30008003200e00f560052
:10ba4000e08f5e0005003a00c9b79f000042eb009e
:10ba5000a4cf9f000004eb00430037003e0190009c
:10ba6000e0db23008100fb000268a3000d00320030
:10ba7000c208dd00010040001001be000c00be0045
:10ba8000dbed070001032000808040000901780001
:10ba90000e0078008cfc07000000e0000d003a006a
:10baa0000d003700c208dd00010040001001be009b
:10bab0000c00be00ceed0700020320000001410093
:10bac0008e00780002007800c6f10700e10f400008
:10bad000010032008904e800afca97000500fb00ae
:10bae0004200dd00e1db2300008040001001be00c9
:10baf0000c00be00ceed07000006be002fc8970068
:10bb00008040e900a1cf9f000004e000c8ff3a0098
:10bb1000c9b79f000804fb000fb09700080450004d
:10bb2000110037003e0090000068a30007003200bb
:10bb300009017800010320000e00780062fc070074
:10bb40000000e00006003a00060037008e00780092
:10bb500000032000a3f10700e10f400001003200c4
:10bb60008904e8000804e9000800e000edff3a005d
:10bb7000c9b79f003e009000afb097000158a300e6
:10bb8000120032000068a300070032004fb1970096
:10bb9000510420000e0078004bfc07000000e0007c
:10bba00006003a001a0037008e007800500420008a
:10bbb0008cf10700e10f4000150032004fb19700f3
:10bbc0000201e800c2b79f00110037000068a3001f
:10bbd000070032004fb19700510620000e00780098
:10bbe00039fc07000000e00006003a0008003700ba
:10bbf0008e007800500620007af10700e10f400027
:10bc000003003200cfb197008301e800c3b79f0063
:10bc1000ffa097003e0090000100e00014003d00ee
:10bc20008100ea00f1a79f000068a300070032002e
:10bc30004fb19700d10220000e00780022fc0700cf
:10bc40000000e00006003a001a0037008e0078007d
:10bc5000d002200063f10700e10f40001500320020
:10bc60004fb297000402e800c4b79f0011003700ec
:10bc70000068a300070032004fb19700b102200016
:10bc80000e00780010fc07000000e00006003a00fb
:10bc9000080037008e007800b002200051f1070044
:10bca000e10f400003003200cfb297008502e800a8
:10bcb000c5b79f00be0090007fa097000168a30059
:10bcc0000b003200a2002000110009000200d80081
:10bcd00001032000808040004fb197000e007800e3
:10bce000f9fb07000000e00009003a000b003700f4
:10bcf000a2002000110009000200d8000003b000db
:10bd00008e00780037f10700e10f40000300320099
:10bd10004fb097000000e800c0b79f00be00900041
:10bd20007fa097000168a3000a003200a200200053
:10bd3000110009000200d8000103b0004fb19700c4
:10bd40000e007800e0fb07000000e0000a003a0067
:10bd50000c003700a2002000110009000200d800ea
:10bd600000032000010040008e0078001df1070054
:10bd7000e10f400003003200cfb097008100e800df
:10bd8000c1b79f002fb197000238a300870432008b
:10bd90009fb197000300e00084043400030478009e
:10bda000cfb497003e0090000068a3000700320067
:10bdb00009017800010220000e007800c2fb070094
:10bdc0000000e00006003a00060037008e00780010
:10bdd0000002200003f10700e10f400001003200e3
:10bde0008904e8000804e900eeff3a006e04370019
:10bdf0000c00e00004003d000c86ea000fb2970042
:10be00000c02420084b79f000800be00c106070074
:10be1000d0af9f00e1af9f00a1db23000040eb000b
:10be200007003700e48040005faa9700efaa970060
:10be3000b10f5200a18f5a00030039000040e80002
:10be4000ea4f5000f7ff3a000000fb008fb2970066
:10be50008082520085b79f00ec8f520006003c00a4
:10be60000540780001fb07000001be000800be008d
:10be7000e8ea07000004be000fe097003dfb070062
:10be80000006be005fa89700efa89700b9eb070077
:10be90000001be000800be00ddea07000001be0090
:10bea0000c00be0008ec07009a0607000006be0062
:10beb00008003700a2002000030020000c00be0094
:10bec000cbec07000006be000fb097000000e900b1
