:020000040000fa
:080000000002040000000000f2
:020000040000fa
:04000800ba1000002a
:020000040000fa
:04000c00cc10000014
:020000040000fa
:04001000de100000fe
:020000040000fa
:04001400e4100000f4
:020000040000fa
:04001800ea100000ea
:020000040000fa
:04001c00ba10000016
:020000040000fa
:04002000ba10000012
:020000040000fa
:04002400ba1000000e
:020000040000fa
:04002800ba1000000a
:020000040000fa
:04002c00ba10000006
:020000040000fa
:04003000ba10000002
:020000040000fa
:04003400c8020000fe
:020000040000fa
:04003800ba100000fa
:020000040000fa
:04003c00ba100000f6
:020000040000fa
:04004000ba100000f2
:020000040000fa
:04004400ba100000ee
:020000040000fa
:04004800ba100000ea
:020000040000fa
:04004c00ba100000e6
:020000040000fa
:04005000ba100000e2
:020000040000fa
:04005400dc020000ca
:020000040000fa
:04005800320300006f
:020000040000fa
:04005c00800600001a
:020000040000fa
:04006000ba100000d2
:020000040000fa
:04006400ba100000ce
:020000040000fa
:04006800ba100000ca
:020000040000fa
:04006c00ba100000c6
:020000040000fa
:04007000ba100000c2
:020000040000fa
:04007400f403000091
:020000040000fa
:04007800ba100000ba
:020000040000fa
:04007c00ba100000b6
:020000040000fa
:04008000ba100000b2
:020000040000fa
:04008400ba100000ae
:020000040000fa
:04008800ba100000aa
:020000040000fa
:04008c00ba100000a6
:020000040000fa
:04009000ba100000a2
:020000040000fa
:0400940066060000fc
:020000040000fa
:04009800ba1000009a
:020000040000fa
:04009c00ba10000096
:020000040000fa
:0400a0006a030000ef
:020000040000fa
:0400a400c003000095
:020000040000fa
:0400a800ba1000008a
:020000040000fa
:0400ac00ba10000086
:020000040000fa
:0400b000ba10000082
:020000040000fa
:0400b400ba1000007e
:020000040000fa
:0400b800ba1000007a
:020000040000fa
:0400bc00ba10000076
:020000040000fa
:0400c000ba10000072
:020000040000fa
:0400c400ba1000006e
:020000040000fa
:0400c800ba1000006a
:020000040000fa
:0400cc00ba10000066
:020000040000fa
:0400d000ba10000062
:020000040000fa
:0400d400ba1000005e
:020000040000fa
:0400d800ba1000005a
:020000040000fa
:0400dc00ba10000056
:020000040000fa
:0400e000ba10000052
:020000040000fa
:0400e400ba1000004e
:020000040000fa
:0400e800ba1000004a
:020000040000fa
:0400ec00ba10000046
:020000040000fa
:0400f000ba10000042
:020000040000fa
:0400f400ba1000003e
:020000040000fa
:0400f800ba1000003a
:020000040000fa
:0400fc00ba10000036
:020000040000fa
:04010000ba10000031
:020000040000fa
:04010400ba1000002d
:020000040000fa
:04010800ba10000029
:020000040000fa
:04010c00ba10000025
:020000040000fa
:04011000ba10000021
:020000040000fa
:04011400ba1000001d
:020000040000fa
:04011800ba10000019
:020000040000fa
:04011c00ba10000015
:020000040000fa
:04012000ba10000011
:020000040000fa
:04012400ba1000000d
:020000040000fa
:04012800ba10000009
:020000040000fa
:04012c00ba10000005
:020000040000fa
:04013000ba10000001
:020000040000fa
:04013400ba100000fd
:020000040000fa
:04013800ba100000f9
:020000040000fa
:04013c00ba100000f5
:020000040000fa
:04014000ba100000f1
:020000040000fa
:04014400ba100000ed
:020000040000fa
:04014800ba100000e9
:020000040000fa
:04014c00ba100000e5
:020000040000fa
:04015000ba100000e1
:020000040000fa
:04015400ba100000dd
:020000040000fa
:04015800ba100000d9
:020000040000fa
:04015c00ba100000d5
:020000040000fa
:04016000ba100000d1
:020000040000fa
:040164004a0b000042
:020000040000fa
:04020800ba10000028
:020000040000fa
:04020c00cc10000012
:020000040000fa
:04021000de100000fc
:020000040000fa
:04021400e4100000f2
:020000040000fa
:04021800ea100000e8
:020000040000fa
:04021c00ba10000014
:020000040000fa
:04022000ba10000010
:020000040000fa
:04022400ba1000000c
:020000040000fa
:04022800ba10000008
:020000040000fa
:04022c00ba10000004
:020000040000fa
:04023000ba10000000
:020000040000fa
:04023400c8020000fc
:020000040000fa
:04023800ba100000f8
:020000040000fa
:04023c00ba100000f4
:020000040000fa
:04024000ba100000f0
:020000040000fa
:04024400ba100000ec
:020000040000fa
:04024800ba100000e8
:020000040000fa
:04024c00ba100000e4
:020000040000fa
:04025000ba100000e0
:020000040000fa
:04025400dc020000c8
:020000040000fa
:04025800320300006d
:020000040000fa
:04025c008006000018
:020000040000fa
:04026000ba100000d0
:020000040000fa
:04026400ba100000cc
:020000040000fa
:04026800ba100000c8
:020000040000fa
:04026c00ba100000c4
:020000040000fa
:04027000ba100000c0
:020000040000fa
:04027400f40300008f
:020000040000fa
:04027800ba100000b8
:020000040000fa
:04027c00ba100000b4
:020000040000fa
:04028000ba100000b0
:020000040000fa
:04028400ba100000ac
:020000040000fa
:04028800ba100000a8
:020000040000fa
:04028c00ba100000a4
:020000040000fa
:04029000ba100000a0
:020000040000fa
:0402940066060000fa
:020000040000fa
:04029800ba10000098
:020000040000fa
:04029c00ba10000094
:020000040000fa
:0402a0006a030000ed
:020000040000fa
:0402a400c003000093
:020000040000fa
:0402a800ba10000088
:020000040000fa
:0402ac00ba10000084
:020000040000fa
:0402b000ba10000080
:020000040000fa
:0402b400ba1000007c
:020000040000fa
:0402b800ba10000078
:020000040000fa
:0402bc00ba10000074
:020000040000fa
:0402c000ba10000070
:020000040000fa
:0402c400ba1000006c
:020000040000fa
:0402c800ba10000068
:020000040000fa
:0402cc00ba10000064
:020000040000fa
:0402d000ba10000060
:020000040000fa
:0402d400ba1000005c
:020000040000fa
:0402d800ba10000058
:020000040000fa
:0402dc00ba10000054
:020000040000fa
:0402e000ba10000050
:020000040000fa
:0402e400ba1000004c
:020000040000fa
:0402e800ba10000048
:020000040000fa
:0402ec00ba10000044
:020000040000fa
:0402f000ba10000040
:020000040000fa
:0402f400ba1000003c
:020000040000fa
:0402f800ba10000038
:020000040000fa
:0402fc00ba10000034
:020000040000fa
:04030000ba1000002f
:020000040000fa
:04030400ba1000002b
:020000040000fa
:04030800ba10000027
:020000040000fa
:04030c00ba10000023
:020000040000fa
:04031000ba1000001f
:020000040000fa
:04031400ba1000001b
:020000040000fa
:04031800ba10000017
:020000040000fa
:04031c00ba10000013
:020000040000fa
:04032000ba1000000f
:020000040000fa
:04032400ba1000000b
:020000040000fa
:04032800ba10000007
:020000040000fa
:04032c00ba10000003
:020000040000fa
:04033000ba100000ff
:020000040000fa
:04033400ba100000fb
:020000040000fa
:04033800ba100000f7
:020000040000fa
:04033c00ba100000f3
:020000040000fa
:04034000ba100000ef
:020000040000fa
:04034400ba100000eb
:020000040000fa
:04034800ba100000e7
:020000040000fa
:04034c00ba100000e3
:020000040000fa
:04035000ba100000df
:020000040000fa
:04035400ba100000db
:020000040000fa
:04035800ba100000d7
:020000040000fa
:04035c00ba100000d3
:020000040000fa
:04036000ba100000cf
:020000040000fa
:040364004a0b000040
:020000040000fa
:100400008ff923000e7f24000e01880000000000f9
:10041000000020000000e000020032000001200087
:100420002002880014000700920707000000e00087
:1004300003003a00c04f21001100200002003700e5
:100440000000200001002000810f70000100320038
:1004500014000700000020000000e000020032004d
:100460000000020000000000c8a60200000000001a
:100470000040da000000fe004440a900e01f220016
:100480000000e0000300320000002000a00188000e
:100490004440a800000006008a1f78008b1f7800e7
:1004a0000000060091018800800478000000eb0045
:1004b0001a003700e284440032a0b4009905ba0063
:1004c000e284440032a0b4009906ba00e2844400f9
:1004d00032a0b4000006eb00476fde00fd07b2005b
:1004e000636ce10003003a00ebff07000000eb0043
:1004f0000a003700606ce10004003a00005deb0088
:100500008b05e900fdff3e00040037006168e10053
:10051000010032000086eb000b00070019c7ba008b
:100520001905ba000e04e00003003a000a00e000da
:10053000e0ff3a0000000600fe07b2009e018800be
:100540008a047800f5ff3700395dba008b05e900b1
:100550000c003200295dba008b05e900080032006a
:100560000c00e00003003a00e284440032a0b40032
:10057000f5ff370019ddba008b05e900faff3a00f4
:100580008904e800e184440032a0b40000000600c1
:10059000809fbe0030fb810041fb81006100400074
:1005a000e080480030fb890041fb89008460a9009d
:1005b0004f00be0000400600809fbe00829fbe002c
:1005c000849fbe003400f80000002000a0018800d5
:1005d000007023001082fb001380230093407800fa
:1005e000157023002202ab00100032002262ab0023
:1005f00015003a002242ab0013003a002222ab0061
:1006000011003a000181fb000200e800f00fb20087
:10061000840f500011003200301180008072790088
:100620008140e8002202ab00f0ff3a0081497800e7
:100630008560a9003400f9004f02be004f01be00e2
:100640004f00be00004006002262a9002242a9001d
:100650002222a90030118000e2ff37003011800013
:10066000e0ff3700809fbe00829fbe003400f8008c
:1006700000002000a0018800f15f230011407800f5
:10068000e25f2300924f10000b0032000081fb005c
:1006900003602300634179000281fb00221188007e
:1006a0008048e8008580a9003400f9004f01be00b1
:1006b0004f00be00004006009580a9008580a9007b
:1006c0003400f9004f01be004f00be00004006009c
:1006d000f9ff3700809fbe00829fbe00849fbe004e
:1006e0003400f80000002000a0018800c04f230063
:1006f0001082fb00d35f230093407800d54f230086
:100700003202ab00100032002262ab0015003a004a
:100710002242ab0013003a002222ab0011003a0043
:100720000181fb000200e800f00fb200840f5000ce
:1007300011003200b0118000807279008140e80021
:100740003202ab00f0ff3a008149780087c0a9006f
:100750003400f9004f02be004f01be004f00be0042
:10076000004006003262a9003242a9003222a900ec
:10077000b0118000e2ff3700b0118000e0ff3700c9
:10078000809fbe00829fbe003400f8000000200061
:10079000a0018800b13f230011407800a23f230050
:1007a000924f10000a0032000081fb00c33f23007b
:1007b000634179000281fb00a21188008048e800b3
:1007c0003400f9004f01be004f00be00004006009b
:1007d00097e0a9003400f9004f01be004f00be00b1
:1007e00000400600faff3700871f780017168000c8
:1007f00017618800cf037800809fbe00829fbe00f3
:10080000849fbe00869fbe00889fbe008a9fbe0058
:100810003400f80000002000a00188004440a80037
:10082000106180000048a30022003a00b08c200034
:1008300011c0b30090cf100007003200f1da2100a0
:1008400022738000810f51001100360022c0b300d6
:10085000904f11000e003200208280000000e00066
:100860000b003a002073880090738800c0e12000dc
:1008700023c0b30090cf1100150032000171800039
:100880000100e00015003a000000eb0070758800e0
:100890008660a9003400f9004f05be004f04be0079
:1008a0004f03be004f02be004f01be004f00be000e
:1008b00000400600b08c20001004e000dfff3a008a
:1008c000208280000000e000e6ff3200f0ff3700e9
:1008d000017180000100e000b800320061e22000f8
:1008e00011417800e24f5100b000360002012000b3
:1008f000f2088800134f800065814100d20888000b
:100900001421ef008760a9009760a800f4ff280079
:1009100082058000020262000200260004017100cc
:10092000820588001fe1a80072758000140c2e005b
:1009300004024100e20f5200a9003e00d275880077
:100940001100200041768800b4758000c5758000d4
:1009500061024200e0824a00b4758800c5758800d3
:10096000f1f32100810f51007b003a000300e00009
:1009700079003a00e1e420001181fb007001610080
:10098000a400320001802f00837580008180410027
:1009900048ee20001802fb001a778000cfd5de0059
:1009a00084014200a56b2e00e5817900c408dd00ba
:1009b0008a8050008044eb008003eb008e003300ff
:1009c000439bde008042eb00838f50000300350024
:1009d000838050000303430045c0b3008381d100ee
:1009e000838f5000030035000514a0008380500061
:1009f000030343008381d100838f50000200350040
:100a00000504a000030343000700e000ab00320030
:100a1000cfb3de000603550087835d000a0028007f
:100a2000fbff2f008a0f53008b8f5b0001003d00fe
:100a30000a03be00f1ff2700810f5300e08f5b0027
:100a400002003400f6ff27000700200089c2720070
:100a50008580fb0081804000c3762e00e380780013
:100a600001024200680033008305200083407800c3
:100a7000830f52006500340016778800014c78001f
:100a8000616180000108a30088003200a3c2200039
:100a90001383fb008101d100340a200004b3b900a4
:100aa0008681410004c320008301420094ee2000af
:100ab0001482fb004422dd0084c972008100e8003a
:100ac0006161880003142000818f510022003e00e4
:100ad000a3c220000200e000120032008100d10019
:100ae0001382fb00320a200002a2b90004814000f8
:100af00001c3200081004100327780004812de00ef
:100b0000844878008268780042ee20001241780024
:100b100092409800117780003177880081ee2000a4
:100b20008248780011002000716188008000eb008d
:100b3000616188001304a2008272800092728800b2
:100b400053758000237588003275800043758000de
:100b50000275880013758800f17080000100e000c4
:100b600049ff3a0023c0b30090cf110046ff3a007e
:100b7000107180002171800061004000e080480019
:100b8000b0758800c17588000075880011758800ef
:100b9000204088003140880010002000f07088005c
:100ba0000000eb007075880039ff37008248e800cc
:100bb0000000eb007075880035ff37000a21ef0058
:100bc0001000200000718800c0e220000148780079
:100bd000616188000000eb00707588002cff370011
:100be0000000eb00f07088008048eb000000eb0094
:100bf0007075880026ff37008100ea0089c0b300c5
:100c0000870020006eff37000002eb008440780070
:100c100099ff370001802f0083758000818041009b
:100c2000c408dd00c889de000308b20001003200fc
:100c30008100ea00b4f72700848f500001003400df
:100c4000840078004408200001024200c7a0de00b2
:100c5000f10fb200956b2d00e5c278008582fb0094
:100c600061618000a6c220009683fb00360a200046
:100c700006bbb9000683400007c32000068343007b
:100c8000c42bdd0083c17300e382420005a2de00b5
:100c90006f02620084c1710003cbea008100e800aa
:100ca00061618800030a200087ff370093ee20006f
:100cb000854978000314200083ff3700cfb1de00a0
:100cc0000a0343008b83490054ff37003400f800c7
:100cd000881f780008002000a80188004f047800d1
:100ce0004440a8008760a9009760a9001fe1a900ff
:100cf000f1e3a8009de0a8003400f90000400600e0
:100d0000809fbe00829fbe00849fbe00869fbe0063
:100d1000889fbe008a1f78008c9fbe003400f800b8
:100d200000002000a00188004440a80000188000b6
:100d3000717180000100e0007200320062e3200067
:100d4000924178000382fb00040242004200de0070
:100d500005e3200080327a000340e8000049780073
:100d6000e24f5000010036000049eb002823ef005d
:100d7000007180000000e00003003200207380005a
:100d80000000e80020738800c0e120001004e000ab
:100d9000060032000273800013738000610141007d
:100da000e08149000273880013738800b06b8000f3
:100db0000000e0005f013200307380000000e800b6
:100dc00030738800e2818000f3818000610141007e
:100dd000e0814900e2818800f3818800f0518100c0
:100de0000000e000020032000000e900f05189003c
:100df000205281000000e000020032000000e90003
:100e000020528900705281000000e0000200320090
:100e10000000e90070528900527380006373800003
:100e200061014100e08149005273880063738800ca
:100e3000f08580000000e800f08588004086800092
:100e40000000e000020032000000e9004086880057
:100e5000908680000000e80090868800f231200033
:100e6000820f5000130036000000eb0090868800cf
:100e7000808680000000e000020032000000e900ef
:100e800080868800708680000000e80070868800f8
:100e9000025281001352810061014100e08149004a
:100ea0000252890013528900605281000000e00064
:100eb00071013a00305281000001e800325289008d
:100ec000f2f32100820f5000020036000000eb0018
:100ed000305289000100a2007171880085a0a9002c
:100ee0003400f9004f06be004f0578004f04be00e5
:100ef0004f03be004f02be004f01be004f00be00b8
:100f000000400600a175800091758800a0758800da
:100f1000b28c2000114f80000100e00009013a006e
:100f2000017180000100e00006003a0024c0b30017
:100f3000924f120003003200238280000300e00081
:100f4000e9003200636180000300e0000b013a0019
:100f5000717580005175880063758800b6758000d2
:100f6000c7758000367588004775880080758800d1
:100f700004802f00040040004400dd006102b9003d
:100f8000c67680006134b900880f5200898f5a00fc
:100f900005013400c076880068768000797680008c
:100fa000a8768800b9768800d67680006134b900ca
:100fb000880f5200898f5a0017013d00d0768800b3
:100fc0006476800075768000847688009576880047
:100fd00024c0b300924f120003003200228280002e
:100fe0000200e0002701320002f42100828f50004d
:100ff00024013a001100200071758800e1e420000e
:101000009180fb00f08060002501320047ee200057
:101010001703fb00127780006114b900060143003a
:10102000a46b2e0064027900080050000045eb001c
:101030000006eb005801330043a1de008042eb00c4
:10104000840f5000030035000400500004014100eb
:1010500045c0b3000482d100840f50000300350066
:101060000514a00004005000040141000482d100d6
:10107000840f5000020035000504a0000401410067
:101080000c00e000230132006116b9000c0454008a
:101090008d845c000c002800fdff2f008c0f540095
:1010a0008d8f5c0001003d000c04be00f2ff2700a4
:1010b000820f5400e08f5c0002003400f8ff27002c
:1010c000090020008ac272000580fb000000400079
:1010d000c2762e0062007800000343003601330020
:1010e0008205200002407800820f53003301340053
:1010f00018778800804b78000308a3004301320072
:10110000a0c220001083fb000301d100300a2000a0
:1011100000b3b9000600410002c3200000004100f6
:1011200092ee20001281fb004411dd0002c8720023
:101130008301e80063618800c4818000d58180005c
:10114000e00f5200e08f5a0004003a003400200003
:1011500005002000c4818800d5818800000a200095
:101160000100e0000100320000142000830f500055
:101170005c003e000100e000ea0032008300d10084
:10118000a0c220009081fb00320a20000299b90021
:101190000281400001c320008100410032778000bd
:1011a000c811de00834878008268780082ee200053
:1011b000924178009340980014778000347788003b
:1011c00041ee200011497800c4818000d581800063
:1011d00061024200e0824a008281800093818000a7
:1011e000e00f5100e08f59000b0132006101410016
:1011f000e081490082818800938188006102420079
:10120000e0824a00c4818800d5818800e00f510047
:10121000e08f59000400320061014100e081490083
:10122000828188009381880011002000716188000c
:101230008000eb00616188001004a20085728000cc
:101240009572880056758000267588003875800074
:10125000497580000875880019758800d07680006f
:10126000c176800000805000cf00de00008040008a
:101270008082d100e5768800240521000006200048
:10128000040040008080e80099858000a9858800de
:10129000010178008081e900232178009301780022
:1012a00073b99f0050b99700d2b89f00c0b997009a
:1012b000c3b89f0030bb9700b6b89f00a0bb970093
:1012c000a7b89f0010bc970098b89f00700050000e
:1012d000f080500090087800840f5000ecff3a0036
:1012e000958288008000eb0060e320001080fb0006
:1012f0000000e8004019880070e320001048e80072
:101300000100a2007171880085a0a9003400f900d5
:101310004f06be004f0578004f04be004f03be00cd
:101320004f02be004f01be004f00be00004006004d
:10133000f4fe3700407380000000e800407388002e
:10134000bbfe370023c0b30092cf1100f4fe320081
:101350008000eb00238280000300e000f0fe3a00f2
:1013600060e320001080fb000000e80040198800c6
:1013700070e320001048e800e1ff3700717580003d
:101380008075880004802f00040040004400dd00c8
:101390006102b900c67680006134b900880f52003e
:1013a000898f5a00fbfe3c00a8768000b976800049
:1013b00061045400e0845c00a8768800b976880057
:1013c000e00f5400e08f5c00f7fe3c006876800080
:1013d00079768000a8768800b9768800c7fb270058
:1013e00007b3b900cfb3de00e00f5300e08f5b001e
:1013f00074003500c13cdd004f33de00068374000d
:10140000c6768800d67680006134b900880f520015
:10141000898f5a00e9fe3500847680009576800039
:1014200061025200e0825a00847688009576880036
:10143000e00f5200e08f5a00e5fe3c006876800025
:10144000797680008876880099768800c4fb27002a
:1014500004b2b900cfa2de00e00f5200e08f5a00c4
:1014600061003500c12cdd004f22de0004827400d3
:10147000d4768800d6fe37000000e900605289006b
:101480008cfe37000101e80072758800f2f321003c
:10149000828f5000d9fe36008000eb0092ff3700ab
:1014a0004881de000208b200010032000000ea00bc
:1014b000b4f72700840f500020003c0044082000af
:1014c0000002420047a0de00f00fb200956b2d0035
:1014d000654078000080fb00a5c220001583fb005a
:1014e000350a200005b3b9008682410006c32000fa
:1014f000850243004403dd000241730063004000a5
:1015000000a0de006f0060000040710080caea00a9
:1015100007ff37004f90de000804410089044800af
:10152000dcfe3700c4818000d5818000828180008c
:1015300093818000a0c2200030ff370004007800b3
:10154000440820000002420047a0de00f00fb20075
:10155000956b2d00654078000080fb00a5c220003f
:101560001583fb00350a200005b3b90086824100cf
:1015700006c32000850243004403dd0002417300de
:101580006300400000a0de006f00600000407100ba
:1015900080caea00e6fe37000000ea008ac0b30015
:1015a0008c00200043a1de008042eb00840f50003d
:1015b000a8fe3500a4fe37000003eb0006407800cb
:1015c000cbfe3700f8ff2700090020000603440087
:1015d00087834c00c13cdd004f33de00068374007e
:1015e000c676880087ff3700f6ff27000700200037
:1015f0000402430085824b00c12cdd004f22de0037
:1016000004827400d476880071fe370090ee2000ca
:1016100005487800c6fe370061024200e0824a00b9
:10162000c4818800d5818800110020007161880084
:101630008000eb00616188001004a20085728000c8
:101640009572880056758000267588003875800070
:10165000497580000875880019758800d07680006b
:10166000c176800000805000cf00de000080400086
:101670008082d100e5768800240521000006200044
:10168000040040008080e80099858000a9858800da
:10169000fffe3700809fbe00829fbe00849fbe0079
:1016a000869fbe00889fbe008a1f78008c9fbe0068
:1016b0003400f80000002000a00188004440a80089
:1016c0008de0a900118280000100e0005801320085
:1016d000008280000000e800000140006101790004
:1016e000c21f880000828800910f5000170031004f
:1016f000104f80000000e0000b003200b08c200092
:1017000022c0b300904f11000700320021828000f8
:101710000100e00004003a00a17580000271800021
:101720000200e0000c003a003400f9004f06be0051
:101730004f0578004f04be004f03be004f02be00ad
:101740004f01be004f00be00004006000000eb004d
:1017500000828800e6ff3700626180000200e0003e
:10176000ec003a007375800053758800627588003c
:10177000b4758000c5758000347588004575880093
:101780008175880004802f0084804000c408dd003b
:10179000610ab900c67680006134b900880f520032
:1017a000898f5a00e6003400c17688006676800092
:1017b00077768000a6768800b7768800d676800097
:1017c0006134b900880f5200898f5a00f8003d003b
:1017d000d1768800647680007576800084768800f3
:1017e0009576880024c0b300904f12000a013200a1
:1017f0000300e80070758800f0f32100808f51002d
:10180000c9ff3e00e0e420001080fb007000600093
:101810006e01320047ee20001703fb0018778000ae
:10182000cfc4de0086014300a46b2e0064827900e1
:10183000888050000045eb000006eb00b901330042
:10184000c3a1de008042eb00848f5000030035000e
:10185000848050008481410045c0b3000482d100df
:10186000848f5000030035000514a00084805000d0
:10187000848141000482d100848f50000200350031
:101880000504a000848141000c00e0008d013200bd
:10189000611eb9000c0454008d845c000c0028000b
:1018a000fdff2f008c0f54008d8f5c0001003d0068
:1018b0000c04be00f3ff2700830f5400e08f5c0090
:1018c00002003400f8ff2700090020008ac27200dd
:1018d0008580fb0081804000c3762e00e380780085
:1018e0000103430097013300830520008340780003
:1018f000830f53009401340018778800814b7800df
:101900000208a300a4013200a1c220001183fb0041
:101910008201d100310a200001b3b9008680410064
:1019200003c320008180410093ee20009381fb00df
:10193000c419dd0083c872000201e80062618800fa
:10194000c4818000d5818000e00f5200e08f5a00f2
:1019500004003a003400200005002000c481880003
:10196000d5818800010a20000000e000010032005b
:1019700001142000828f50006bff3e000000e00049
:10198000330132008200d100a0c220009081fb0010
:10199000320a20000299b9000281400001c32000f0
:1019a0008100410032778000c811de008348780052
:1019b0008268780082ee20001242780094409800fd
:1019c000157780003577880041ee200011497800b6
:1019d000c4818000d581800061024200e0824a001b
:1019e0008281800093818000e00f5100e08f5900d8
:1019f0006c01320061014100e08149008281880070
:101a00009381880061024200e0824a00c48188001c
:101a1000d5818800e00f5100e08f590004003200aa
:101a200061014100e0814900828188009381880042
:101a300011002000716188008000eb006161880066
:101a40001004a2008672800096728800577580008c
:101a500027758800387580004975800008758800f2
:101a600019758800d0768000c17680000080500013
:101a7000cf00de00008040008082d100e576880043
:101a80002405210000062000040040008080e800ba
:101a900099858000a9858800010178008081e9008e
:101aa000232178009301780073b99f0050b9970003
:101ab000d2b89f00c0b99700c3b89f0030bb970051
:101ac000b6b89f00a0bb9700a7b89f0010bc9700b6
:101ad00098b89f0070005000f08050009008780087
:101ae000840f5000ecff3a00958288003400f90022
:101af0004f06be004f0578004f04be004f03be00e6
:101b00004f02be004f01be004f00be000040060065
:101b10000eff3700737580008175880004802f00e8
:101b200084804000c408dd00610ab900c6768000e8
:101b30006134b900880f5200898f5a001aff3c00a7
:101b4000a8768000b976800061045400e0845c00cf
:101b5000a8768800b9768800e00f5400e08f5c001a
:101b600016ff3c006876800079768000a8768800b1
:101b7000b9768800c7fb270007b3b900cfb3de00f2
:101b8000e00f5300e08f5b00f1003500c13cdd0049
:101b90004f33de0006837400c6768800d676800058
:101ba0006134b900880f5200898f5a0008ff350050
:101bb000847680009576800061025200e0825a00af
:101bc0008476880095768800e00f5200e08f5a00f6
:101bd00004ff3c0068768000797680008876880073
:101be00099768800c4fb270004b2b900cfa2de00ba
:101bf000e00f5200e08f5a00de003500c12cdd00fe
:101c00004f22de0004827400d476880024c0b30022
:101c1000904f1200f6fe3a0000f42100808f510030
:101c2000f3fe3a001000200070758800f5fe3700c2
:101c3000218680000000eb000100e000240032005b
:101c4000428680000200e00021003a0070738000ac
:101c50000000e90070738800a0003a00620c2100c7
:101c600000497800130c2100134178000204e000c1
:101c7000ef0032000241e90082497800504b8000b9
:101c80004800de00c19620009180fb00c808dd00fe
:101c900081007000717388000208a30017013a00e8
:101ca0000000eb00e14f510009003600200c21003c
:101cb0001081fb000208a30002003200630ab90091
:101cc000747388000201d100024878000000eb0024
:101cd000a18680000100e0000500320092758000be
:101ce0004411dd0001002800810041000080400017
:101cf000e17280000100e00051003200f1728000ca
:101d00000100e0001b003a00525181006351810044
:101d1000e00f5100e08f590016003200165181008b
:101d200027518100f6508900075189003151810007
:101d300044518100115189002451890002a2b90047
:101d4000019cb900040244000209b800830142006a
:101d5000c118dd004f12de0004827000cf9ade0051
:101d60000602520087825a00345189004551890089
:101d70000400400081728000e211210062c27800fc
:101d8000b36b80000300e000520032000482fb00cd
:101d900004024200a37b2d00e3017a00030040000f
:101da000c01f880000c0eb0000f178008100e8004f
:101db0008172880060862000908f50004cfe3900b0
:101dc0000000eb008072880049fe3700c889de0001
:101dd0000308b200010032008100ea00b4f72700d6
:101de000848f500020003c00440820000102420083
:101df000c7a0de00f10fb200956b2d00e5c07800a2
:101e00008180fb00a5c220001583fb00350a20005d
:101e100005b3b9008602410006c3200085024300d5
:101e2000440bdd0083417300e380400081a0de00ad
:101e3000ef80600081c0710081caea00befe3700f9
:101e4000f823ef0081728000e2112100d5ff3700f6
:101e5000c4818000d58180008281800093818000d0
:101e6000a0c22000e7fe370084007800440820006c
:101e700001024200c7a0de00f10fb200956b2d00f9
:101e8000e5c078008180fb00a5c220001583fb001f
:101e9000350a200005b3b9008602410006c32000c0
:101ea00085024300440bdd0083417300e380400062
:101eb00081a0de00ef80600081c0710081caea006d
:101ec0009dfe3700cf98de000884410089844800d9
:101ed00072fe3700c01f8800b2ff3700100c2100cf
:101ee00010407800e14f50004d0036000008a3007c
:101ef0004b003a00610c2100114178000280fb0088
:101f00000000400023a12e00630078000241e80099
:101f100082487800e94f51006dff36008048eb00a1
:101f20006bff37008100ea008ac0b3008c002000fc
:101f3000c3a1de008042eb00848f500047fe3500d5
:101f400043fe37000003eb00864078006afe37004e
:101f5000f8ff2700090020000603440087834c0097
:101f6000c13cdd004f33de0006837400c676880076
:101f70000aff3700f6ff2700070020000402430095
:101f800085824b00c12cdd004f22de0004827400ec
:101f9000d47688001dff370091ee20008548780038
:101fa00065fe370061024200e0824a00c481880079
:101fb000d581880011002000716188008000eb004d
:101fc000616188001004a200867280009672880009
:101fd0005775800027758800387580004975800026
:101fe0000875880019758800d0768000c176800059
:101ff00000805000cf00de00008040008082d100d1
:10200000e576880024052100000620000400400039
:102010008080e80099858000a98588009efe3700b1
:10202000610c2100114178000000eb00b9ff37007e
:102030007073880082497800240c2100024a7800dd
:10204000a2c5b30031407800218688000004e0007a
:102050001f003200ff4f5000faff3600824f500041
:10206000f8ff3e0001ceb300014040000080fb00bd
:102070008000400040242e0060c078000004e00092
:1020800024003200004040008049780052242e0095
:10209000e2c078008180fb000108a3002900320023
:1020a000524b80004811de00c39620009381fb0054
:1020b000c819dd00030171006311b9007273880053
:1020c0008100d100014a78000004e00009003a00d4
:1020d0000000eb0020868800404b80004800de00b6
:1020e000a19620009180fb00c808dd00010070006f
:1020f000408688000000eb00f5fe37000000eb0092
:10210000e14f5100f2fe3a00818040007173880077
:10211000effe370010c0b30080497800504b8000bc
:102120004800de00c19620009180fb00c808dd0059
:10213000010070006600b900707388000000eb00b9
:10214000e3fe3700524b80004811de00c3962000aa
:102150009381fb00c819dd000301710072738800d0
:102160008100d100014a78000004e000d8ff32006d
:10217000e0ff37003400f800881f780008002000d6
:10218000a80188004f047800000000000000000053
:102190003400f900004006003400f800881f780081
:1021a00008002000a80188004f047800000000000b
:1021b000000000003400f9000040060000000000ac
:1021c00000000000004006000000000000000000c9
:1021d000004006003400f800881f78000800200046
:1021e000a80188004f0478000000000000000000f3
:1021f0003400f900004006001004b100070035006b
:102200009001b100040034007000b10003003500fb
:102210009001b10001003c00100005000000050025
:102220006900e100040035006d00e10003003400a6
:102230000002b1000100320000000500100005009e
:102240001004b100030035009001b10001003c0012
:102250001000050000000500800078001104b100a6
:10226000030035009101b10001003c000050a000c6
:10227000000006000000050003f0a200889fbe00d9
:102280008a9fbe008c1f78001101070018013300df
:102290006450e1004f0032006420e100520032003f
:1022a00003826c0007003b000905d0000306d00044
:1022b000820f54000c065d0002003900020032005b
:1022c00089017800030678008582550004003d00ee
:1022d0000003fd008103fd008502ea008b854200ba
:1022e000840f720002003b0060001000e0801800c4
:1022f0006011b8000005eb007a28e1000a003900ff
:1023000006007800c75ddd00f707b2008780750022
:102310002d003700828171000a017800610560009c
:102320008180d1000080d3008502e900f9ff3b00e5
:10233000060440008784480002003b00600414004b
:10234000e0841c000988a300070032008a81710024
:1023500082817100610164008904d1000884d30086
:102360008b05e800170037000978a30013003a0036
:102370000b00e000130034008b05e9000804440062
:1023800089844c000a4474000978a3000d003a00c7
:102390000b00e000070034008b05e900080444004e
:1023a00089844c0001003a000b0020000978a3004a
:1023b000f7ff32000001eb0002003700828171005c
:1023c0000a017800870007000cf0a70001f0a000c8
:1023d000d00037006420e10002003a00838f6c00d7
:1023e000d00033000801be000200be00c900370063
:1023f0000081eb0002013700889fbe008a9fbe006b
:102400008c1f7800b2000700b900330003866c000f
:102410006450e1002e0032006420e10033003200fd
:102420006150e1002f0032006120e10031003200f4
:1024300085855500eb07b000090020000804200046
:10244000050037000804440089844c000a0031006c
:102450000603430087834b000001530081815b002a
:10246000f8ff33000203be000800a0000804440087
:1024700089844c00f6ff3900c639dd008301730002
:1024800001003200130020008904d1000884d30029
:102490000998a300050032000800a7000300a0006f
:1024a0008904d1000884d3008b05e8008904d10099
:1024b0000884d3000001eb000281d200490007002c
:1024c00001f0a1000cf0a70001f0a000910037007e
:1024d0006420e100930032000801be000200be004b
:1024e000f7ff37006120e1008e0032006000b80085
:1024f000f3ff37000000200001f82700f0ff37004d
:10250000839f68000100e00002003d0060001000b1
:10251000e08018000300e00002003d0060011100af
:10252000e08119004c0107004f00e00002003b0071
:1025300060001000e0801800000006001400200079
:102540009a023700f4ff2f00980237000001be0006
:102550004a0007000470a70003f0a1006509b1005c
:10256000160032000d0035006828e1000600350035
:10257000f0ff2f00f1ff27000300e00013003b00f5
:102580000100280000000500000040008180480094
:102590008502e900fcff3a0008003700f88f42008e
:1025a00002003c008000eb00000005008100d1002b
:1025b0000080d3008502e800fcff3a000300e00041
:1025c00002003b0060001000e080180000000600e0
:1025d0004f89de00820178008f0237006011b80059
:1025e0009d02370081002000618055000b003d00f6
:1025f0000b00200061fe2f000100e1001d003400ef
:1026000082817100610164008904d1000884d300d3
:102610000000e800faff3a00710020006100640049
:1026200003007000020060000900320061044400f1
:10263000e0844c000988a500050032008b05e80005
:102640006808e10002003a008904d1000884d30040
:10265000f20f20000258e10005003d00c75ddd00db
:10266000f907b200898075000800780000000600b4
:102670000bf827008b00780000000500c70ade0079
:10268000f107b200f50fb20008003200e1cf4200be
:10269000020032000170a00024000500810f7000cc
:1026a000010032000408050044000500810f70009d
:1026b00002003a00140005008502e9000000400015
:1026c00081c04800fcff3b000170a0002400050011
:1026d0000004be00e9ff07000003be000405be00c1
:1026e0000200be00e5ff0700844f750000000600f1
:1026f0000200be006450e100050036006420e100e5
:10270000020036000968a30001003a000800be007c
:102710000160a0004f0678004f05be004f04be00c8
:1027200000000600f0ff2f00f1ff2700f9ff37003f
:10273000889fbe008a9fbe008c1f7800e4ff0700c0
:10274000ebff330003866c006450e100240032008c
:102750006420e100270032006150e10022003200d5
:102760006120e100210032008b854200eb07b100bf
:102770000134b800003ab8000804420089844a00d5
:10278000013ab8000030b8008880400009014a00d2
:10279000040033000000400081804800020149002d
:1027a0008b05e900c909dd008301700001003200da
:1027b00013002000c814de004814dd004709de00c5
:1027c0001200b200c808de000884700085ff070010
:1027d00001f0a1000cf0a70001f0a000cdff370030
:1027e0006120e100cfff32000801be000200be0000
:1027f000f7ff37006150e100fcff3a00c9ff3700e6
:10280000889fbe008a9fbe008c9fbe008205780014
:102810000004be0099ff07000800be006420e1002c
:102820000700390002003a00f1ff2700f0ff2f00f7
:102830000160a0001202200002408800550037000d
:102840006120e10003003a000b00a70001f823001b
:102850005000370001f0a100020021009364240021
:1028600036ff07000800be0004003500b2fd20005e
:10287000930c2400270207000004be000005eb00b3
:102880000b00a6004f0dde0001f0a1000004be0009
:1028900032982f0023ea2300a5ff07000001eb0078
:1028a00003f023000b00a70003f8230073fe0700ca
:1028b00026ff07000000a7000a00a20044ff07004f
:1028c0000b00e000030032000200200003f02300b0
:1028d00069fe070001f0a2000006be000200200011
:1028e0009304240092ff07000801be0063fe070066
:1028f000809fbe000c00be0022a22a00d3a72300a6
:102900008bff07004f01be005cfe07000004be0005
:1029100001f0a100020020000398230007ff070038
:102920000800be00190035000001be0080ff07004e
:102930000006be00b2c52900e36223007cff070049
:1029400022222b00f3942b004cfe07000c01be004a
:1029500077ff0700e273280083c0230047fe0700cb
:102960000c01be0072ff070042aa2a00a3e22b005e
:1029700042fe07000c01be006dff07000801be000b
:102980006bff07000801be003cfe07000a00a7001d
:1029900001f0a2004f06be004f05be004f04be006e
:1029a000000006000001eb0095ff37001400fa005c
:1029b000889fbe008a9fbe008c9fbe000005be009f
:1029c0000206be00680047000c90be000a90be00e0
:1029d000360107006400e1001a00320016003e00d4
:1029e0006100e1001a0032006e049000fe049000c5
:1029f0000e0b90009e0b90006011b8009e05900099
:102a00000b38b100d50120008281710061016400a2
:102a10008703d1000683d3008984d3000884d300c0
:102a20008502e900f8ff3a00eefe07000df0a7006e
:102a300001f0a00058013700f1ff2700f0ff2f0040
:102a40005501370001f8270000002000f7ff37008c
:102a50006000b800f5ff37006022b80006022000d1
:102a60000000d0008180d2000482d2008582d20092
:102a70000000a0000202520083825a0003003100cd
:102a80000202420083824a000000a1000603e9001e
:102a9000f3ff3a0000000600efff07000400be004d
:102aa00000000600889fbe008a9fbe0030044200de
:102ab000b0844a0030054b0090854b006000b100a7
:102ac0000898be000a90be000440e10005c8e1007d
:102ad00006d0e10007d8e1000200310068004000a4
:102ae0001008e8004f05be004f04be0000000600bd
:102af000889fbe008a9fbe003004be002005be0035
:102b00000418540005985c0006185d0007985d00e5
:102b1000110020000440e10005c8e10006d0e100fa
:102b200007d8e100010039008000eb001088100098
:102b30004f05be004f04be00000006001200fa0060
:102b4000889fbe008a9fbe008c9fbe00e0b79f009a
:102b5000f1b79f0082bf9f0093bf9f000605be0094
:102b60000404be000000eb00d0b79f00c0b79f0078
:102b7000b0b79f00a0b79f0090b79f0000067800f5
:102b80005fb19700cfb09700820141003fb097003e
:102b90000200e00004003d00370007007e8057007f
:102ba000c0ff070003003700330007007e80570096
:102bb000cfff0700dfb697000d00e0000c003500e6
:102bc0006fb29700ffb297000fbb97009fbb9700b3
:102bd00010002000010020006011b8000002720007
:102be0008182720002037300838373001b0007005d
:102bf0000c06e80001042000810f5600e0ff3a00b7
:102c00000d00e00004003d000802be000a03be0003
:102c10007e805700a3ff07005fa897000000e00038
:102c200005003a001fb29700afb297003fb397007c
:102c3000cfb39700090007006fb09700ffb097006f
:102c40000fb997009fb997004f06be004f05be0011
:102c50004f04be000080fa000000060001000700db
:102c600000000600a4b79f00b5b79f00c6b79f003d
:102c7000d7b79f00000006004f09de008281710077
:102c8000b3b79f004f01de0081804000828070005a
:102c9000a1b79f008fb097004f09de0000004000f1
:102ca0000200700090b79f007fa897004f01de00e0
:102cb000818040008280700081b79f000d00070076
:102cc0004f3ade000000400004007000f0af9f00ab
:102cd000080007000402420085824a0006034b00f8
:102ce00087834b00dfff07000802be000a03be0017
:102cf000000006002fb29700bfb297004fb39700b5
:102d0000dfb3970000000600881f7800180020003d
:102d1000881f780089ff07008f87e9004f0478003b
:102d200000000600801feb0084ff07008f87e9008a
:102d300000000600889fbe008a9fbe00e00f500082
:102d4000e08f5800e00f5900e08f59000c003d0063
:102d50006044b8006055b8000000540081805c00f9
:102d600002015d0083815d0018002000150007004e
:102d700008003d00180007000004eb0005003700c4
:102d80000004eb000f00070002003d0012000700e6
:102d900018002000dcff07000800e00006003200f9
:102da0006022b8006033b8000000520081805a00f1
:102db00002015b0083815b004f05be004f04be0033
:102dc00000000600e00f5200e08f5a00e00f5b00a9
:102dd000e08f5b00000006006044b8006055b8005a
:102de0000402540085825c0006035d0087835d0059
:102df00000000600889fbe008a9fbe008c1f7800de
:102e0000e00f5000e08f5800e00f5900e08f5900ac
:102e10000d003d006044b8006055b800000054004b
:102e200081805c0002015d0083815d001c00200048
:102e30000820e10009a8e1000ab0e1000bb8e100b8
:102e40000d003d00080037000006eb00e00f5200c7
:102e5000e08f5a00e00f5b00e08f5b0006003d0052
:102e60006044b8006055b8000402540085825c00dc
:102e700006035d0087835d00aaff07000c00e000e9
:102e8000060032006022b8006033b8000000520033
:102e900081805a0002015b0083815b004f0678004d
:102ea0004f05be004f04be00000006008000780001
:102eb0005002be005003be004439de00f700b200ed
:102ec000f37f200003016100090032000218e100d5
:102ed00016003a008501720083017300838173003c
:102ee0000008200015003a004000200013003700c1
:102ef00085017200830173008381730005003a002d
:102f000004a8be0006a8be00100020000b00370079
:102f10000201e9000402420085824a0006034b00d8
:102f200087834b000748a300f9ff32000740a00049
:102f300004a8be0006a8be00200020008000980063
:102f40009200980000000600680447000294be004a
:102f50000094be00fc0447008694be008494be002a
:102f600009007800d1ff070008007800cfff0700b4
:102f700099007800814f70000b003b000800be00f4
:102f8000b50007004f00b10003003700f3ff270032
:102f9000f2ff2f006110b9004f06be004f05be00c2
:102fa0004f04be000080fa0000000600889fbe00ab
:102fb0008a9fbe00841f7800c5fd07004f0078007f
:102fc00011003300f0ff2f00838f6c0006003b00e0
:102fd000040565000a00a7000800370009f0a600f4
:102fe0001000200008003700820f5400838f5c001f
:102ff000030039001000200001003e000000200006
:1030000009f0a7000000ea004f05be004f04be0013
:103010000000e00000000600881f7800030478002c
:103020000300e00007003d0060001000e080180091
:1030300060011900e081190002003b0001f02d0041
:10304000030037000400070008f0a70001f0a0000b
:103050004f04780000000600889fbe008a9fbe00d3
:1030600000827000040271000482710026003200a8
:103070000004be000200be006011b8006b09200011
:10308000950220000182cf000a0039000541b100fd
:103090000082cf00070039000541b1000982cf004e
:1030a000040039000541b1000882cf000100390059
:1030b0000541b10005425200120032000a003b00f7
:1030c00082817100610164008100d1000080d30021
:1030d0008984d3000884d3008b05e8000442e8000b
:1030e000f7ff3a00070037000804440089844c00c9
:1030f00000004800818048008b05e9000442e90097
:10310000f9ff3a0037fd07004f05be004f04be002f
:10311000000006000400200000003700889fbe0069
:103120008a9fbe008c1f78004f26dd0068fd0700d7
:103130006ffd33006120e100430032006250e10086
:1031400041003e003e0039006420e1003c003200b6
:10315000058255000f003b000402e80038003a00e9
:10316000800f5300818f5b00350034000800be00e3
:1031700003f0a10001f0a60003f0a0000cf0a700ee
:103180003efc070063fd37000603430087834b00c6
:103190000c4646000005530081855b0002003300a9
:1031a0000a03be000c00a0000402e900f6ff3b0089
:1031b000850578000602430087824b0004003a0030
:1031c0006000b80009f0a70001f0a00051fd370031
:1031d0000002520081825a000704e000040033001c
:1031e0000603430087834b008b05e900faff370095
:1031f000090578000604be000203be006011b80095
:10320000f8fc0700e00f5200e08f5a00070035007d
:1032100002003c000c08a300040032000601be00be
:1032200003f0a0000cf0a70014fc07000a8568005a
:1032300001f0a1000af0a70001f0a00035fd370061
:103240000800be0033fd3700100220000cf0a6007d
:103250000040880033fd3700e48240001078a3006e
:1032600007003200640240001178a3003400be0061
:103270001401be00040032000330a7000000060065
:103280003500be001501be000330a000000006009e
:10329000889fbe008a9fbe008c9fbe008e1f780054
:1032a000010678000c00e00001003200000e7800fa
:1032b00080047800090578008a047800b905fb00cd
:1032c0000b007800d6fb07000000e000f9ff3a0091
:1032d000d0022000808f550003003a0009057800d5
:1032e00018c0b300050037000044eb00b002200016
:1032f000808f550001003a00090578006000b80091
:103300008004eb0009077800010037000a05e80097
:103310000a0178000848a30005003a00e3c2b300a0
:103320009acf110002003a000844a000f7ff3700ce
:103330009a4578008b01fb000303b100e98f51002f
:1033400016003e000814a0000801fb00e98f54009d
:103350000e0032000248a300010032000e07e9000f
:103360008904e800a20020000300200034180700b0
:1033700002cdb30002c145000281fb008001eb00d9
:103380000000410081804900e0ff37000248a300af
:10339000deff3a000e07e800dcff370053c6b3003b
:1033a00083cf5500040032008004eb0053c4b30007
:1033b00083cf55002d003a005a417800d3c2b300a4
:1033c000834f510002003a000834a0000300370088
:1033d000b3c2b300834f510001003a000a05e80070
:1033e0000a017800020578003a42780003c3b3006e
:1033f000834f5200faff32008402fb000503b10044
:103400008004eb00e98f520015003e008344520017
:103410008984fb000a017800124278008402fb00d4
:103420000503b100e98f52000d003e006a4bb90060
:10343000834452008984fb00868444005242780011
:103440008402fb000503b100e98f520004003e0036
:103450006a4bb900834452008984fb00868444008f
:103460000838a300010032008904ea000c00e000e3
:10347000030032000818a30001003200020e780099
:1034800053fc07000005be000006be006011b80036
:103490002afc0700000178006000b8000200e0008c
:1034a000580032008e84440032f82f00828f54007e
:1034b00003003d0022022000024088005100370036
:1034c00000082000808f54000700340020022000f4
:1034d000004088000808a3004500320000002000da
:1034e00001f82f00470037000900e0001b003d00f5
:1034f0008904ea0006003700922f200053012500be
:103500000a00be00bcfb07000005be00ea845400b0
:10351000e98f5400f8ff3c0006003700020020004d
:10352000031224000a00be00b3fb07000005be0022
:103530008904e9000900e000f8ff3a000a06be002d
:1035400002002000030820000a00be00fbfb070069
:103550000000e00021003d001b0037000900e000f2
:1035600007003a001d003700922f2000530125006c
:103570000a00be006efc07000005be00ea8454008d
:10358000e9cf5400f8ff3e0006003700020020009b
:10359000031224000a00be0065fc07000005be00ff
:1035a0008904e9000900e000f8ff3a000a06be00bd
:1035b000f2ff2f00f3f727000a00be00e1fb07002f
:1035c0000000e000050034000808a3000b003200f2
:1035d00000002000010828000a0037000808a300a6
:1035e000010032000df0a2000c00be000500370003
:1035f0000000200001f82700020037000000200032
:10360000010820004f0778004f06be004f05be009e
:103610004f04be00000006001dff37008000eb00d5
:103620001bff3700800078000100780030417800ef
:1036300003c2b300834f5100faff3200e94f51003b
:10364000f8ff3200edc14100834f510003003a0002
:103650008000780013c0b300050037008041eb0004
:10366000b4c2b300844f510001003a0080007800da
:103670000000eb00020037006a02b90004004100bc
:103680003101fb000203b100e90f5100faff3600df
:103690000304e000010032000000ea000000060020
:1036a00003487800000278008100fb00a30020009e
:1036b000110009008300d8008000fd00800178001f
:1036c00000c3b30000e241000104e0000300320047
:1036d00080c0400071fa9f000000060072fa9f004f
:1036e000000006008001780063816100d016200090
:1036f00010003a0042062000110009008281d80023
:1037000001017800e01620000200e00009003a0004
:10371000c11220008380400002192000110009001e
:103720008280d800d01620000100e00001003a009d
:103730000000e80000000600889fbe001004be00e4
:10374000c2032000030020000800be00d2fc0700d6
:1037500030fa8900c2032000030020000800be00e8
:10376000bdfc07000004be00c203200003002000cf
:10377000c9fc070040fa8900c203200003002000b2
:103780000800be00b4fc07000004be008201200057
:1037900003002000c0fc070050fa890082012000cd
:1037a000030020000800be00abfc07000004be00c0
:1037b000e401400072002000110009008201d800dd
:1037c0000101780092fa89006904200002003700a4
:1037d000000454008904e80009007800c1ff0700d4
:1037e000800f5400faff3d0089fa890062406000b2
:1037f000a8fa89008000eb0004003700020454009e
:103800008100e8000080fb000000d10092de230070
:1038100062c17800024170000281fb00820f5400f7
:10382000f6ff3d0071fa8900c0f423000808e800a3
:10383000660050004f04be00000006000400fa00bd
:1038400041fc2f0022fa81000191b90030024100b1
:10385000a0824900e4bf9f00f5bf9f00648057002d
:10386000b5ff07000080fa0000000600889fbe0038
:103870008a9fbe0000047800680090006300b900d1
:10388000e1da23008beb2300e14d7800008040005b
:103890008b00e800d04878008b80e8001040900052
:1038a0008048780009c2b3000100e80009487800a8
:1038b000480090006300b90041dc230064814500aa
:1038c0006149780000804000e5804500d0487800dc
:1038d000e680450010409000804878000100e80034
:1038e00009487800b80090008941780009417800c3
:1038f000630040006aff0700a8009000a3c3b30064
:1039000002c3b3006d80450065ff0700980090007a
:10391000a3c3b30002c3b3007080450060ff07007b
:10392000980078008941780002c3b3007380450095
:103930005bff0700d80090004a0620001100090034
:103940008a00d800f34040008041eb000941780034
:103950007680450052ff0700d80090001100090052
:103960008a00d800a3c0b30002c3b300788045002a
:103970004bff07000b0078004f05be004f04be0050
:1039800000000600adff0700b8ff3700881f780071
:1039900000047800b8009000010078001020b20008
:1039a000e10f500005003a000000eb001004980001
:1039b00028009000000c7800180037002120b20089
:1039c0000000eb0022202000828f500017003a00f8
:1039d000a80090000100e0001400320018019000df
:1039e0000200e00011003200480090004936070054
:1039f00098009000810f50000300320038009000c2
:103a00000003b300300498000000eb00100498009d
:103a100028009000000c7800b80090000000eb0037
:103a20000158a300010032000080eb004f04780031
:103a300000000600889fbe0001047800b8009000d6
:103a40008084eb000118a3003a00320018019000b6
:103a50000198a30002003a000200e00035003a009d
:103a60000190a0003104980080047800f90fb200a2
:103a70000200e00002003a0028009000000c7800ec
:103a8000ea8f540005003a000178a30003003a00d1
:103a900088007800d0002000e6ff070018009000a2
:103aa000d8009000810f50000b0032000000e800a9
:103ab000100498001800780009487800000ce8000d
:103ac00011c0b30080f7230001487800ea8f54004a
:103ad00018003a0005003700880078000940780097
:103ae000cf130700800478001200370038009000e0
:103af0000088a3000f00320018019000a800900079
:103b0000480090000336070098009000810f500095
:103b100004003200380090000003b3003004980025
:103b20008084eb000000eb00100498002800900057
:103b3000000c7800090078004f04be000000060069
:103b4000e68747008e1f7800d0bf9f00e1bf9f002f
:103b50000e0037005fba970014407800efb9970065
:103b6000934078000201e900814f500004003200c8
:103b70000080fb008180fb00010050000600370040
:103b800066875700041fe800030fe8000200e0000a
:103b9000f0ff3a000000eb004f0778006f00b10023
:103ba000000006008001780002003700b15978005b
:103bb0000201e9000200e000fcff3a0000000600fc
:103bc0008001780002192000110009008281d800cc
:103bd0008000fd0000017800110020000200e000dc
:103be0000a003200638161008000eb0007003a00a8
:103bf00042062000110009008281d80001f0a700d0
:103c00008100ea008100ea00cf08de0001007800b0
:103c10000000060011bf20000180b90012442f00ef
:103c20000000410042062000110009000280d80077
:103c300000000600881f7800000478004242de0081
:103c400003192000110009000384d8000001780046
:103c50008001eb0002014200e0814900d6162000fd
:103c60000643b8000202430083824b004206200054
:103c7000110009000284d8008000fd0001005200fc
:103c8000e0805a004f04780000000600889fbe00c4
:103c90008a9fbe000004be00020578000900e8000b
:103ca000dcff07000a0540008005eb00e18f5400af
:103cb0000a00360008007800c1ff0700220020003b
:103cc000030020000000e00002003200120020008b
:103cd000030020000205550083855d000800e9000f
:103ce000d4ff07000000450081804d004f05be0055
:103cf0004f04be0000000600889fbe008a9fbe00e1
:103d00008c9fbe0000047800d8049000a3fb2f0015
:103d1000898141000080eb008080eb00e2102000f0
:103d2000828f510032003e00c076200000804400a7
:103d300038019000c8009000d4ff07000006be00c4
:103d4000120020008000eb00207b2000cfff070046
:103d50000005560081855e007200200003002000ef
:103d60000a00be004cfb070064004000e0804800f1
:103d7000720020000300200047fb07006004980049
:103d8000b076200000804400aaff07000c06e9007e
:103d9000000656007c0498008201200003002000e9
:103da0000a00be00a615070028019000cf91de0092
:103db0000000410081804900c20320000300200070
:103dc0009f15070018019000cf91de000000410010
:103dd00081804900c20320000300200098150700dd
:103de00018017800cf91de00000041008180490079
:103df0004f06be004f05be004f04be000000060087
:103e00000000fa0068815700cfb89700e0e923006e
:103e1000ca0907000080fa0000000600889fbe0063
:103e20000004be00050037000000fb008900780098
:103e300000ff0700e10f4000040032003840780026
:103e40000004e000f8ff3a000000eb004f04be0061
:103e500000000600881f7800e1e92300efff07005b
:103e600000047800e1e92300a0002000f1fe070033
:103e7000080078004f047800000006000001780078
:103e800002007800b041780081cf51000300320079
:103e90000304e000f9ff3a000001eb0002007800a3
:103ea00000000600b041780031c1510002003a0024
:103eb0000304e000fbff3a000200fb0000000600e4
:103ec00000017800b1417800035978000304e00054
:103ed000fcff3a00000006000000fa00889fbe00c8
:103ee0008a9fbe00000578000fb99700f085570043
:103ef0002a0037000201e80054c2b30084cf510009
:103f000025003a00b24278000502fb000403b1002c
:103f10008b80e9000400e00008003a008105780089
:103f20009b01780001003700045d7800334278007f
:103f30000404e000fcff3a00180037008105780017
:103f40009b01780004024200c6962300060242004c
:103f5000060478000a037800940378001100090031
:103f60008701d80081017800c4037800110009009e
:103f70008701d8008003780000c3b30000db430052
:103f8000880f5200f4ff3a008502fb000503b100e0
:103f90000505450001003700035d78009241780077
:103fa0000304e000d3ff3a00034d78004f05be0044
:103fb0004f04be000080fa0000000600889fbe008b
:103fc0008a9fbe008c1f780000047800820478006d
:103fd000030578008100e9000106440088057800a7
:103fe0000a0137008904e80050c2b300804f510035
:103ff00000013a0039407800a1c5b300814f50005c
:10400000e300320028003c00edc05000814f50001a
:104010008f00320012003c00ebc05000814f500076
:104020005500320007003c0021802300824f5000e1
:10403000ec00320011c4b300814f5000da003a00a6
:104040004200370081c4b300814f50006f0032003e
:104050008140e800814f5000d3003a006d003700e6
:1040600071c5b300814f50008e00320007003c0044
:10407000e4c05000814f50007d00320081c0e80054
:10408000814f5000c8003a007b00370081c5b30063
:10409000814f5000a90032008140e800814f50005c
:1040a000c1003a00b5003700a1c6b300814f5000ef
:1040b000600032000f003c00e8c05000814f50000b
:1040c0002900320004003c008140e900814f50008b
:1040d000b5003a001900370031c6b300814f5000d7
:1040e000290032008140e800814f5000ae003a00c4
:1040f0003d00370071c7b300814f50007800320097
:1041000007003c00eac05000814f50004d003200d3
:10411000e3c04000814f5000a3003a004e0037003a
:1041200081c7b300814f5000710032008140e80028
:10413000814f50009c003a008b0037006a009000cd
:104140000000400001862300030037006a00900051
:1041500000004000818a2300e1007800a1003700c0
:10416000800478009f0037004a0090000000400063
:10417000618e2300f8ff37004a00900000004000e5
:1041800001952300f4ff3700da009000c07620008c
:10419000809f40009a1f78001a009000801f7800ce
:1041a000aa009000811f78003a009000801f7800dc
:1041b0004a00900000004000618e2300e11f78005b
:1041c0006a0090000000400001862300e11f780093
:1041d000b0802300801f780040ed23003eff0700e1
:1041e000f087570007003700ba009000811f780061
:1041f00000822300801f780040ed230036ff070077
:10420000e487570041ed2300760037002a00900034
:1042100022003700aa009000c2002000110009000f
:104220008200d8000100e000f0ff3a008200780030
:10423000eeff37007a009000801fe80030822300f4
:10424000ecff37004a009000801fe800e8ff3700cd
:104250009a009000e5ff37002a009000518023006b
:10426000eb0f50005f003400818023005d003700b9
:104270009a1f7800deff37007a009000720020005d
:10428000110009000200d80001017800ea00900046
:10429000810f5100010034000000e800801f780009
:1042a000d3ff3700fa0190007200200011000900ce
:1042b0008201d8008101780000027800ea009000b5
:1042c000e6804000110009008200d800818f510073
:1042d000010034000402e800841f7800c4ff3700a6
:1042e000ea009000811f780060822300c1ff370040
:1042f000da009000c0762000809f40003a009000d5
:10430000801f78004a00900000004000618e23006a
:10431000e11f78006a009000000040000186230041
:10432000e11f780090822300801f780040ed230079
:10433000e9fe0700ea875700b2ff37009a1f7800ae
:104340009a009000811f78002a009000801f78005a
:1043500070832300801f780040ed2300defe0700fd
:10436000e8875700a7ff37005a0090004206200058
:10437000110009000200d8009cff3700da0090000d
:10438000c0762000809f40000084230099ff370002
:104390000a089000418023000000e0001100320074
:1043a00051cb81000f00370041ed230050c2b30014
:1043b0008048780009007800404178008101e800d9
:1043c000824978008181e8008049eb000204e00026
:1043d00063ff3200030037008c8f55000700320066
:1043e000805d7800314078000004e000faff3a0078
:1043f000060037008c8f550003003a00804deb001b
:104400000000eb0006003700825d7800194178005b
:104410000204e000f3fe3a00824d78000880550067
:104420004f0678004f05be004f04be000000060096
:10443000800078003104e000feff3a000080ea00ce
:104440000080400000000600800178000600370070
:104450000201e900b1427800855978000302780032
:104460000504e00006003200030278000200e000cc
:10447000f7ff3a0002003700005aeb000201e900a2
:104480000200e000fcff3a0000000600889fbe002a
:104490000004be000b00370009007800e4ff0700ad
:1044a000000178000800be009c1107000000e00039
:1044b000090032000800e8009900fb006ffe0700c9
:1044c000000478000800e000030032001804e00057
:1044d000f1ff3a000004eb00080078004f04be0032
:1044e000000006000c00fa00a0bf9f00c0bf9f00a4
:1044f000cfff0700b0bf9f00f0bf9f00100c20004f
:10450000d0bf9f0074815700efb097006c805700b8
:10451000340007000080fa0000000600881f7800c1
:10452000b0fc8100c110070000047800080078008a
:104530003bf707000000e000f9ff3a00e10f4400fc
:1045400003003200b1fc81000800780082110700ee
:104550004f04780000000600889fbe008a1f780084
:1045600000047800814478000205780000fd2f00e7
:1045700008004000e90f500002003e0000047800ef
:1045800010003700080078002df707000000e00059
:10459000050032000a00e000030032000800780045
:1045a0002df70700000478000800780012f70700d4
:1045b0008000780000c0eb000100e000060032003f
:1045c0007805b1008984fb0000c0eb00890f54001e
:1045d00001003d00084078004f0578004f04be0000
:1045e00000000600f0874700889fbe008a9fbe003b
:1045f0008c9fbe008e1f7800010578008204780031
:10460000b0fc89000000eb00c0b79f00e0b79f003e
:104610000044eb00600137000a05e8000b86fb0050
:104620000c007800fef607000000e00002003200f7
:10463000baff07005501370050c2b30080cf5500c4
:1046400043013a008046eb0021c0b3000d467800dc
:104650000a00780001477800040037004ec0b3001c
:10466000010037002ec0b3000a007800ba45780078
:1046700091c6b30081cf5500a30032001c003e005c
:10468000e6c0500081cf55007700320011003e0097
:10469000f7c0500081cf55002c00320006003e00cc
:1046a0000b04e000bd003200a1c2b30081cf550071
:1046b00082003a002300370081c5b30081cf550046
:1046c0007e003a000e407800b0ef9f0011002000fd
:1046d0002500370041c6b30081cf55008a00320063
:1046e000e4c0400081cf550074003a00ddff370080
:1046f000f1c6b30081cf55008700320007003e00ad
:10470000e3c0500081cf55001000320081c0e800a6
:1047100081cf550069003a001600370051c7b30039
:1047200081cf550078003200e3c0400081cf5500b2
:104730000a003200e5c0500081cf55005f003a000a
:104740001c0037000c46e800c7ff3700e24f570057
:10475000c2ff32008ec0b300c3ff37000e407800a6
:10476000b0ef9f008000eb00c1b79f0000c1b30015
:104770006c0037008e407800b1ef9f000c04e00021
:1047800069003a008984e900e4cf500005003a004e
:1047900019007800efb097006109b9000288be00e7
:1047a0006100370019007800efb097000108780029
:1047b0005d00370059ff07000c04e00002003a00da
:1047c00049007800b0b79f00b0fc810017100700c7
:1047d00080057800e18f4500020032006fb7970036
:1047e000140037000b007800e20037000e07e800e5
:1047f0001a00fb00808f550002003a000a05e8000d
:10480000130037000c04e00003003a00bfb097002b
:104810008b587800b1b79f00cfe8970001c04600e1
:104820008e4f50000a003200b0fc8100ff0f0700dd
:10483000800578000b00e800e10f5000040036000e
:104840000b00780076f607000000e000e7ff32007a
:104850000c04e000ce003a000844e8003fb09700a6
:104860000c487800ca0037000c04e00003003a004e
:104870000844e800c9007800b1b79f006fb79700ff
:10488000bfb59700b0fc8100e80f0700e10f4000c2
:10489000b80032000c04e00002003a000e07e80005
:1048a000805d78008d46e9004240a900f5ff3c009c
:1048b0000b007800b0b79f00b50037008b85fb0078
:1048c00001fd2f008b804000e98f500009003e0061
:1048d00054fb0700804678008a00780001057800c4
:1048e0003100fb000003b100e90f5000fbff360070
:1048f0005dff3700b0fc8100cc0f0700808f5500b2
:1049000097003a00a10037008e407800b1ef9f0079
:10491000a0c0b300030037008e407800b1ef9f00c5
:1049200080c0b300a0ef9f00fcfe0700b0fc810038
:10493000be0f070080057800efb097008100e80007
:10494000e1b79f000040eb00d0e79f00d0022000bd
:10495000808f550008003a00b0fc8100b30f0700bb
:1049600080057800efb097008100e800e1b79f0074
:1049700010c0b300d0e79f004fb19700afe8970099
:104980000b007800f4fe0700e14f40000c003a00f5
:10499000b1fc81000b0078006f1007000804e000f4
:1049a00080003a00b0fc8100b00090000000eb00f5
:1049b0000148a3007c0032000080eb007a00370041
:1049c00000032000808f550018003a00b0fc8100e1
:1049d000960f070081072000810f500004003a0065
:1049e000cfb097000100e000070032000d00370053
:1049f00081052000810f50000a003a00cfb09700d7
:104a00000100e00007003200b0fc8100870f0700c2
:104a1000800578006fb097000080e800e0b79f0045
:104a200002003700b1fc81004b1007006022b80083
:104a3000c8e79f00090778000404be0001003700a2
:104a4000e3b79f00afe897000181fb008001eb0016
:104a50000800be007a1207000004be004fb19700a4
:104a6000afe897000b007800bbfe07000080fb005a
:104a70008000eb000004440081844c006fb097007c
:104a80008001e8008d46e9000b003200b0fc810097
:104a9000f3b79f00650f0700800578004fb19700be
:104aa000afe897000b007800abfe0700ffb197005e
:104ab000e14f4000e2ff3a000802be004fe49700d9
:104ac0008e047800030778004fb19700afe8970095
:104ad0000b007800f4b79f0085bf9f009efe070083
:104ae0007fb297008fba9700e14f400006003a006e
:104af000b1fc81000b007800171007006fb797001a
:104b00008fba97007fb29700dfe097000104e000c2
:104b10000200320060021200e0821a000c04e00081
:104b20001b003a000844e8008984e9003fe8970048
:104b3000e44f500003003a00190078000488be00da
:104b400013003700190078000408780010003700bf
:104b5000b0fc8100350f0700800f560008003200be
:104b6000e10f400003003200b1fc8100fa0f0700a2
:104b70000c0037000804e0000a003a000a00370081
:104b80006fb097000007e800010037006fb797008b
:104b90008e007800e1b79f009a4578000b04e00092
:104ba0009dfe3a000880fb004f0778004f06be00cc
:104bb0004f05be004f04be000f01b100000006000b
:104bc0000c00fa00889fbe0000047800f0ff270068
:104bd000d0bf9f008004eb0099bf9f0088bf9f005b
:104be000a8bf9f00200c2000b0bf9f007881570015
:104bf000cfb0970070805700cf0007000fb8970024
:104c0000094878008fb89700088050004f04be0014
:104c10000080fa00000006000800fa00889fbe002d
:104c20008a9fbe000084fb00d1c6b300814f5000b4
:104c3000340036004b062000110009000b84d80018
:104c400081057800720040004300dd0069a2230066
:104c5000008044006022b8000600200007fe230008
:104c60005001be004000be007d1107000002be00e2
:104c70000203be0084bf9f0095bf9f00a6bf9f0098
:104c8000b7bf9f00aa002000110009008a85d80044
:104c900080057800e9854500c35ddd008b85440013
:104ca0003b02be002b03be000fb897009fb89700d1
:104cb0002fb99700bfb99700691107000002be0025
:104cc0000203be0084bf9f0095bf9f00a6bf9f0048
:104cd000b7bf9f00110009000a84d80001047800c2
:104ce0004344dd00888444003902be002903be002d
:104cf0000fb897009fb897002fb99700bfb99700da
:104d00001d003700ea4f500013003600aa002000b3
:104d1000110009000a84d8000105780069044000e8
:104d20004344dd0069a22300088444006022b800e7
:104d30000600200007fe23003800be002801be0048
:104d4000471107004355dd008a8444003902be0044
:104d50002903be00080037004344dd0060a22300a1
:104d6000080440006022b8000600200007fe23006f
:104d70003800be002801be00391107004f05be00f3
:104d80004f04be000080fa00000006000800fa0090
:104d9000889fbe008a9fbe00d1c6b3000004e00019
:104da00023003d000040ea000004fb00814f50005a
:104db0000a00340042062000110009000204d80055
:104dc000a9002000110009008900d800e900400076
:104dd000c308dd006aa2230021003700ea4f50001b
:104de00010003400a2002000110009000204d800c5
:104df00001017800690040004300dd0061a223004a
:104e0000008040004311dd00828040003102be007e
:104e10002103be005001be004000be00101107007b
:104e2000380037004344dd0060a223003200370021
:104e30000004fb00814f5000230034004206200094
:104e4000110009000204d800a90020001100090087
:104e50008900d800e9004000c308dd006a972300fc
:104e6000810045003102be002103be008b092000f5
:104e70008a8545003b00be002b01be00f8100700ec
:104e80000002be000203be0084bf9f0095bf9f00ca
:104e9000a6bf9f00b7bf9f00110009000904d800fa
:104ea000010478004344dd00080545003a02be00d5
:104eb0002a03be000fb897009fb897002fb997003c
:104ec000bfb99700d5ff3700ea4f50000800340003
:104ed000a2002000110009000204d800010178009e
:104ee000690040004300dd0061972300c4ff3700e4
:104ef0004344dd0060972300080440003800be00f2
:104f00002801be004f05be004f04be000080fa001d
:104f100000000600d0019000028151004240a9002b
:104f20000300340010017800014978000208e8000d
:104f300001007800000006006f02b000889fbe00ec
:104f40008a9fbe008c9fbe008e1f780000067800ee
:104f5000b1af9f0092b79f006000b8006011b80029
:104f6000d0af9f00e1af9f00f2af9f0083b79f00db
:104f70008006eb00c5043700bfa897008100e80059
:104f8000b1af9f0051c2b300814f500003003a00ff
:104f9000bfa897000007eb0011003700bc0090008d
:104fa0000000fb000168a300070032000d0178003b
:104fb000800078000c007800d6ff07000000e000b9
:104fc00005003a00b10437008c00780099fa070018
:104fd000e10f4000ad0432008d06e800ab0437005d
:104fe0000101780031407800d3c2b300834f5000f4
:104ff0000c00320007003c00edc15100834f50000f
:105000000a003200ebc14100834f50000d003a000e
:105010000800370003c3b300834f500009003a0073
:10502000060037000e30a000edff37000e00a00094
:10503000ebff37000e10a000e9ff37000e20a000a4
:10504000e7ff37000e18a300010032000e00a10098
:105050000e38a300010032000e20a1008000fb00ea
:105060000103b100e98f50000c003e0002007800ff
:105070008005eb006a59b900b005fb000b03b100d5
:1050800082854500000178009000fb000103b1001b
:10509000e98f5000f7ff3600080037008005eb006d
:1050a000a1c2b300814f500004003a009fb19700a5
:1050b000c305780093b79f000201e800e0c2b30087
:1050c000924f100016003a000ee0a000644050001d
:1050d000d24f100003003200020078008001eb0084
:1050e000080037009fb297004503780095b79f00ee
:1050f000e6b79f000201e8000c0037006a19b9000a
:105100008281400000017800b000fb000103b10083
:10511000e98f5000f9ff3600e3b79f000300370026
:105120000ec0a0008003eb00e7b79f00820178006b
:105130003340780003017800c1c6b300814f5000ae
:105140002b003200b3af9f0014003c00e8c05000b9
:10515000814f50002400320009003c00ecc0500098
:10516000814f50002a003200ebc04000814f5000b8
:105170008c0032000004e00049043200a200370035
:1051800061c6b300814f50001b003200e3c04000f5
:10519000814f50009c003a001300370031c7b30024
:1051a000814f50001e00320007003c00e4c0500058
:1051b000814f5000130032008140e800814f5000c1
:1051c00091003a001200370051c7b300814f5000e0
:1051d00092003200e3c04000814f50008a003a0044
:1051e000e0cf9f000c003700e0cf9f008d0037001c
:1051f0000e40a000cdff3700e0cf9f000ea0a00022
:1052000088003700e0cf9f000e60a00085003700c7
:10521000e0cf9f000e50a0000e70a000810037006c
:10522000e0cf9f009fb097004100780091b79f00aa
:10523000000478000000e00001003a00c8d223001a
:10524000880078000000eb00010037000000e80053
:10525000614178000204e000fcff3a00800478001d
:105260006fb197000200e00003003200890f510087
:1052700001003100820478000005eb00898f5500a1
:105280000100360009855500680767002a003a00ca
:10529000110037003c0090000068a30007003200b6
:1052a0000d017800010220000c00780019ff0700b2
:1052b0000000e00006003a00060037008c0078008d
:1052c00000022000dbf90700e10f4000010032007e
:1052d0008d06e8000a05e9000a00e000edff3a004b
:1052e0000085eb00140037003c0090000068a3002c
:1052f0000900320008007800b000fb0000047800cc
:105300000d0178000c00780002ff07000000e000ab
:1053100008003a0008003700880078003100fb00e0
:10532000010478008c007800c2f90700e10f40000a
:10533000010032008d06e800090078008004e900d1
:105340000000e000e8ff3a000e00e000cf0332006a
:10535000110037003c0090000068a30007003200f5
:105360000d017800010220000c007800e9fe070022
:105370000000e00006003a00060037008c007800cc
:1053800000022000abf90700e10f400001003200ed
:105390008d06e8000a05e9000a00e000edff3a008a
:1053a000ba0337009fb197004302780093b79f007c
:1053b000cfa2de00482bdd004820de000000730095
:1053c000c828de00e0cf9f000e48a300080032008e
:1053d0000004e00006003200e14f4000040032000b
:1053e000f0cf9f0084d79f002900200002003700e3
:1053f000f4cf9f0019002000e7fc2f008f834300ab
:105400000704e80096ff3700e0cf9f00e8fc2f007c
:105410000f0444001900200091ff3700e0cf9f00e7
:105420000e0cb3000170200081006700700067005f
:105430000100e000190232000ec8a3000200320091
:1054400061002000e1b79f000000e000060032008c
:105450001fb09700680050003002be002003be005d
:1054600090b79f00060037001fb197004200be00b2
:1054700092b79f00eb0e07000002be000203be00c1
:10548000a4b79f00b5b79f00c6b79f00d7b79f00ce
:105490006022b8006033b8002fb09700bfb097000b
:1054a0004fb19700dfb19700490e07000000e00000
:1054b0000a003d002fb09700bfb097004fb1970092
:1054c000dfb1970003f0a200a0b79f00b1b79f0023
:1054d000c2b79f00d3b79f003e00b3000000eb00af
:1054e00090af9f006022b8006033b8002fb09700e3
:1054f000bfb097004fb19700dfb19700980e07003b
:105500000000e0003400320024fd2f000f024200b2
:105510002fb09700bfb097004fb19700dfb1970051
:105520002f0f07001fa897000000e9006302b900d1
:10553000a2002000110009000202d80090af9f00d5
:105540000000e00002003d000000e90090af9f0075
:105550001fac97000840ea000cfe07002fb297002e
:10556000bfb297004fb39700dfb397003c0f07001f
:105570000002be000203be00d4af9f00e5af9f0053
:10558000f6af9f0087b79f006022b800060020009a
:1055900007ff23000e0e07000000e00002003d00a0
:1055a0000804e9000b0037006022b8000600200064
:1055b000470224005fa89700efa897007fa99700f3
:1055c0008fb19700070e07000000e00002003500d1
